:020000040000FA
:060000000A128A11B92F5B
:100008001C340034003400340A168A1578270A1282
:100018008A11831203132608A8002508A7000A16C8
:100028008A1556270A128A11831203132608AA0072
:100038002508A9000A168A159A270A128A11831216
:1000480003132608AC002508AB000A30F000003086
:10005800F1002808F3002708F2000A168A1167251C
:100068000A128A117008303EFC007C0883160313BC
:10007800B4000A30F0000030F1008312031328089E
:10008800F3002708F2000A168A11CA250A128A11F3
:10009800710883120313A8007008A7000A30F00043
:1000A8000030F1002808F3002708F2000A168A1128
:1000B80067250A128A117008303EFC007C088316F6
:1000C8000313B3000A30F0000030F1008312031369
:1000D8002A08F3002908F2000A168A1167250A126D
:1000E8008A117008303EFC007C0883160313B600A2
:1000F8000A30F0000030F100831203132A08F300DD
:100108002908F2000A168A11CA250A128A117108EA
:1001180083120313AA007008A9000A30F000003007
:10012800F1002A08F3002908F2000A168A11672547
:100138000A128A117008303EFC007C0883160313EB
:10014800B7000A30F0000030F100831203132C08C6
:10015800F3002B08F2000A168A1167250A128A1181
:100168007008303EFC007C0883160313BA000A307E
:10017800F0000030F100831203132C08F3002B0861
:10018800F2000A168A11CA250A128A117108831206
:100198000313AC007008AB000A30F0000030F10027
:1001A8002C08F3002B08F2000A168A1167250A1298
:1001B8008A117008303EFC007C0883160313B900CE
:1001C8000800831203130716871207138713871D66
:1001D800EE28EF2806293230F0000030F1000A1628
:1001E8008A1152210A128A11FF280130F6000030C4
:1001F800F700AB2AAB2A83120313871904290529B0
:10020800F9280629071D09290A2921293230F00071
:100218000030F1000A168A1152210A128A111A298D
:100228000230F6000030F700AB2AAB2A8312031322
:1002380007191F29202914292129871C2429252940
:100248003C293230F0000030F1000A168A115221A0
:100258000A128A1135290330F6000030F700AB2A5C
:10026800AB2A8312031387183A293B292F293C29E3
:10027800071C3F29402957293230F0000030F1008F
:100288000A168A1152210A128A1150290430F600DE
:100298000030F700AB2AAB2A83120313071855293D
:1002A80056294A2957290712871607138713871DC6
:1002B8005E295F2976293230F0000030F1000A16F5
:1002C8008A1152210A128A116F290530F60000306E
:1002D800F700AB2AAB2A83120313871974297529EF
:1002E80069297629071D79297A2991293230F00060
:1002F8000030F1000A168A1152210A128A118A293D
:100308000630F6000030F700AB2AAB2A831203133D
:1003180007198F29902984299129871C94299529BF
:10032800AC293230F0000030F1000A168A1152214F
:100338000A128A11A5290730F6000030F700AB2A07
:10034800AB2A831203138718AA29AB299F29AC2942
:10035800071CAF29B029C7293230F0000030F1005E
:100368000A168A1152210A128A11C0290830F60089
:100378000030F700AB2AAB2A831203130718C529EC
:10038800C629BA29C7290712871207178713871D95
:10039800CE29CF29E6293230F0000030F1000A16C4
:1003A8008A1152210A128A11DF290930F600003019
:1003B800F700AB2AAB2A831203138719E429E5292E
:1003C800D929E629071DE929EA29012A3230F0004E
:1003D8000030F1000A168A1152210A128A11FA29EC
:1003E8000A30F6000030F700AB2AAB2A8312031359
:1003F8000719FF29002AF429012A871C042A052A3B
:100408001C2A3230F0000030F1000A168A115221FD
:100418000A128A11152A0B30F6000030F700AB2AB1
:10042800AB2A8312031387181A2A1B2A0F2A1C2A9D
:10043800071C1F2A202A372A3230F0000030F1002A
:100448000A168A1152210A128A11302A0C30F60033
:100458000030F700AB2AAB2A831203130718352A9A
:10046800362A2A2A372A0712871207138717871D61
:100478003E2A3F2A562A3230F0000030F1000A1690
:100488008A1152210A128A114F2A0D30F6000030C3
:10049800F700AB2AAB2A831203138719542A552A6B
:1004A800492A562A071D592A5A2A712A3230F00039
:1004B8000030F1000A168A1152210A128A116A2A9A
:1004C8000E30F6000030F700AB2AAB2A8312031374
:1004D80007196F2A702A642A712A871C742A752AB8
:1004E8008C2A3230F0000030F1000A168A115221AD
:1004F8000A128A11852A0F30F6000030F700AB2A5D
:10050800AB2A8312031387188A2A8B2A7F2A8C2AFC
:10051800071C8F2A902AA82A3230F0000030F100F8
:100528000A168A1152210A128A11A02A1030F600DE
:100538000030F700AB2AAB2A831203130718A52A49
:10054800A62A9A2AA82AA82AF601F701AB2A08009F
:100558000A168A151D260A128A110A168A152B26CA
:100568000A128A110A168A1524260A128A110A16EC
:100578008A11E6200A128A110A168A150A260A1210
:100588008A1183120313D401D50183160313EE01D4
:10059800EF010130EA000030EB0001308312031351
:1005A800E0000030E1000130DE000030DF000C30F8
:1005B8000A168A1533260A128A1101300A168A1574
:1005C80033260A128A1103300A168A1533260A12AC
:1005D8008A1138300A168A1533260A128A110A1621
:1005E8008A150E260A128A110A168A15BC270A12BB
:1005F8008A1183120313260883160313ED0083124E
:100608000313250883160313EC000A168A11A12286
:100618000A128A110A128A15A2210A128A11323084
:10062800F0000030F1000A168A1163220A128A11BA
:100638001D2B0A168A15BC270A128A118312031366
:10064800260883160313ED00831203132508831667
:100658000313EC0003300A168A1533260A128A118E
:10066800831603135508D03E83120313CE00FF30C0
:1006780003180030CF00831603135608D03E8312A8
:100688000313D000FF3003180030D1004F08F100E9
:100698004E08F0000A30F2000030F3000A168A1102
:1006A8002A210A128A118312031350087007D200F4
:1006B80051080318510A7107D3005308831603130E
:1006C800DC0083120313520883160313DB00570858
:1006D80083120313C800C9014808CA004908CB009F
:1006E80083160313580883120313C800C901480866
:1006F800CC004908CD004B0883160313DE00831293
:1007080003134A0883160313DD00831203134D08ED
:1007180083160313E000831203134C088316031394
:10072800DF000A128A11E5200A128A11770883125B
:100738000313D5007608D4000A168A1184210A12F8
:100748008A11831603135508D03E83120313CE0073
:10075800FF3003180030CF00831603135608D03E2D
:1007680083120313D000FF3003180030D1004F0864
:10077800F1004E08F0000A30F2000030F3000A16CB
:100788008A112A210A128A1183120313500870074A
:10079800D20051080318510A7107D30083160313B6
:1007A800580883120313C800C9014808CA00490839
:1007B800CB0083160313590883120313C800C90119
:1007C8004808CC004908CD0054035504031DED2BFF
:1007D800EE2BF52B54080A128A1574230A128A1173
:1007E800F52B06308312031354065504031DFD2B05
:1007F800FE2B082C5508B2005408B1000A168A11BD
:10080800AE260A128A11082C0730831203135406E5
:100818005504031D102C112C1B2C5508F9005408E5
:10082800F8000A168A113B260A128A111B2C093075
:100838008312031354065504031D232C242C2E2C39
:100848005508A8005408A7000A128A11D8240A12C9
:100858008A112E2C08308312031354065504031DE5
:10086800362C372C412C5508F8005408F7000A1686
:100878008A11B7210A128A11412C0D3083120313F1
:1008880054065504031D492C4A2C542C5508A8001D
:100898005408A7000A128A15E1240A128A11542C56
:1008A800831203135308803AC8006D08803A48023F
:1008B800031D602C6C085202031C632C642C7E2CD4
:1008C80083120313E001E1015508B2005408B10096
:1008D8004F08B4004E08B3005108B6005008B500E0
:1008E8005308B8005208B7000A128A158A220A1259
:1008F8008A117E2C831203136D08803AC8005308AE
:10090800803A4802031D8A2C52086C02031C8D2C65
:100918008E2CCE2C831203135308803AC8008316FA
:1009280003135C08803A831203134802031DA22CA8
:10093800831603135B088312031352020318A52CB2
:10094800A62CCE2C8312031360036104031DAD2C67
:10095800AE2CCE2C831603136E086F04031DB52C22
:10096800B62CCE2C831203135508BD005408BC00C6
:100978004F08BF004E08BE005108C1005008C00013
:100988005308C3005208C2000A168A112D270A12FA
:100998008A11CE2C0A128A15A2210A128A111D2B3D
:1009A8001D2B0A128A11002801300A168A153326CF
:1009B8000A128A1183120313C601C701A230A900C3
:1009C8002908B8005D30A9002908B9000A168A1557
:1009D800DE270A128A11831203132608D900250874
:1009E800D8000A168A1534270A128A1183120313AB
:1009F8002608DB002508DA000A168A1512270A12CB
:100A08008A11831203132608DD002508DC005D081F
:100A1800C1005C08C0005B08C3005A08C20059083E
:100A2800C5005808C400182D2F308400AA3083123E
:100A38000313A9000408AA000930AB0029088400A0
:100A480083130008AC00A90A2A0884002C08800037
:100A5800AA0AAB0B222D03300A168A1533260A126E
:100A68008A11831203133808F1000030031D803007
:100A7800F2000A168A1165230A128A110A128A11CB
:100A8800E5200A128A11770883120313A800760852
:100A9800A700093027062804031D532D542DDE2EE8
:100AA8004108A1004008A0000A168A15BB260A12B0
:100AB8008A11831203134308A1004208A0000A16F2
:100AC8008A15D8260A128A11831203134508A10031
:100AD8004408A0000A168A15F5260A128A11013060
:100AE8000A168A1533260A128A1103300A168A153D
:100AF80033260A128A11831203133908F1000030D1
:100B0800031D8030F2000A168A1165230A128A1121
:100B1800C830F0000030F1000A168A1163220A1268
:100B28008A1101300A168A1533260A128A11B82F3B
:100B3800DE2E02308312031346064704031DA52D3B
:100B4800A62DA92DC601C701F02E0130C60703182E
:100B5800C70A0030C707F02EF02E46084704031DC9
:100B6800B62DB72D1F2E5E035F04031DBC2DBD2DB2
:100B7800F72D4608A9002907403E84008313000882
:100B8800AA00840A0008AB002A082B04031DCD2DF7
:100B9800CE2DD92D4608A9002907403E84001730DC
:100BA8008000840A00308000F02E4608A90029073A
:100BB800403E84000008AA00840A0008AB002A0806
:100BC800FF3EAC002B080318013EFF3EAD0046086F
:100BD800AE002E07403E84002C088000840A2D08B1
:100BE8008000F02EF02E5E085F04031DFC2DFD2D05
:100BF800FF2DF02EF02E4608A9002907403E84005C
:100C080083130008AA00840A0008AB002A08FF3EE4
:100C1800AC002B080318013EFF3EAD004608AE00AD
:100C28002E07403E84002C088000840A2D0880008E
:100C3800F02EF02EF02E4608A9002907403E840029
:100C480083130008AA00840A0008AB002A082B04B2
:100C5800031D2F2E302E3B2E4608A9002907403EA3
:100C680084003B308000840A00308000F02E460863
:100C7800A9002907403E84000008AA00840A000849
:100C8800AB002A08FF3EAC002B080318013EFF3ECC
:100C9800AD004608AE002E07403E84002C088000B8
:100CA800840A2D088000F02EF02EF02E4608470406
:100CB800031D5F2E602EA32E5E035F04031D652EA9
:100CC800662EF02E4608A9002907403E84008313AB
:100CD8000008AA00840A0008AB0017302A062B0473
:100CE800031D772E782E812E4608A9002907403E3D
:100CF80084008001840A8001F02E4608A900290793
:100D0800403E84000008AA00840A0008AB002A08B4
:100D1800013EAC002B080318013E003EAD0046081A
:100D2800AE002E07403E84002C088000840A2D085F
:100D38008000F02EF02EF02EF02EF02EF02E460829
:100D4800A9002907403E840083130008AA00840AEA
:100D58000008AB003B302A062B04031DB42EB52E29
:100D6800BE2E4608A9002907403E84008001840A57
:100D78008001F02E4608A9002907403E840000089B
:100D8800AA00840A0008AB002A08013EAC002B0820
:100D98000318013E003EAD004608AE002E07403E57
:100DA80084002C088000840A2D088000F02EF02E84
:100DB800F02EF02E831203132808003A0319E52EAB
:100DC800F02E27080A3A03199D2D013A0319B12D6F
:100DD800073A03195A2EF02E4108BB004008BA0002
:100DE8004308BD004208BC004508BF004408BE00D7
:100DF8000A30F0000030F1003B08F3003A08F20036
:100E08000A168A1167250A128A117008303E831261
:100E18000313A9002908B0000A30F0000030F100DF
:100E28003B08F3003A08F2000A168A11CA250A128A
:100E38008A11710883120313BB007008BA000A30C4
:100E4800F0000030F1003B08F3003A08F2000A16FF
:100E58008A1167250A128A117008303E831203131B
:100E6800A9002908AF000A30F0000030F1003D0861
:100E7800F3003C08F2000A168A1167250A128A1143
:100E88007008303E83120313A9002908B3000A3002
:100E9800F0000030F1003D08F3003C08F2000A16AB
:100EA8008A11CA250A128A11710883120313BD0018
:100EB8007008BC000A30F0000030F1003D08F30073
:100EC8003C08F2000A168A1167250A128A1170086E
:100ED800303E83120313A9002908B2000A30F0003B
:100EE8000030F1003F08F3003E08F2000A168A11AC
:100EF80067250A128A117008303E83120313A9006D
:100F08002908B6000A30F0000030F1003F08F3006D
:100F18003E08F2000A168A11CA250A128A117108B7
:100F280083120313BF007008BE000A30F0000030BF
:100F3800F1003F08F3003E08F2000A168A116725FF
:100F48000A128A117008303E83120313A900290877
:100F5800B5002F30F1000030F2000A168A1165231F
:100F68000A128A11182D182D08008317A030FD00C9
:100F78001E30FE005130FF00903084000A168A159A
:100F880065260A128A118313DB30FD001230FE0039
:100F98002830FF00A03084000A168A1565260A1238
:100FA8008A117030FD000030FE000430FF006C3004
:100FB80084000A168A1565260A128A118317A0303A
:100FC8008400AE300A128A1503200A128A1183138C
:100FD800DB308400F0300A128A1503200A128A11C5
:100FE800563084006C300A128A1503200A128A11BE
:080FF80083010A128A11AC2AE0
:1010060064008001840A04060319003404060428D7
:101016000A168A15BC270A128A1583120313260894
:1010260083160313ED008312031325088316031397
:10103600EC008E30FC007C0883120313A700783086
:10104600FC007C08A8004130FC007C08A9006F3039
:10105600FC007C08AA008730FC007C08AB006630E8
:10106600FC007C08AC009530FC007C08AD009D2897
:1010760083122708F1000030031D8030F2000A16A3
:101086008A1165230A128A15BB28831203132808BE
:10109600F1000030031D8030F2000A168A11652324
:1010A6000A128A15BB28831203132908F10000309F
:1010B600031D8030F2000A168A1165230A128A156A
:1010C600BB28831203132A08F1000030031D803069
:1010D600F2000A168A1165230A128A15BB288312A2
:1010E60003132B08F1000030031D8030F2000A16AE
:1010F6008A1165230A128A15BB28831203132C084A
:10110600F1000030031D8030F2000A168A116523B3
:101116000A128A15BB28831203132D08F10000302A
:10112600031D8030F2000A168A1165230A128A15F9
:10113600BB28BB28831603136D08003A0319A4289D
:10114600BB286C08013A03193B28033A03194828BF
:10115600013A03195628073A03196428013A031974
:101166007228033A03198028013A03198E28BB28EE
:1011760008000A168A15DE270A128A158312031337
:101186002608D9002508D8000A168A1534270A1217
:101196008A15831203132608DB002508DA000A16CF
:1011A6008A1512270A128A15831203132608DD00F0
:1011B6002508DC000A30F0000030F1005D08F3007D
:1011C6005C08F2000A168A1167250A128A15700849
:1011D600303EFC007C0883160313CD000A30F00075
:1011E6000030F100831203135D08F3005C08F2007F
:1011F6000A168A11CA250A128A1571088312031360
:10120600DD007008DC000A30F0000030F1005D08F7
:10121600F3005C08F2000A168A1167250A128A157D
:101226007008303EFC007C0883160313CC000A309D
:10123600F0000030F100831203135B08F3005A0834
:10124600F2000A168A1167250A128A157008303EBE
:10125600FC007C0883160313D0000A30F00000302F
:10126600F100831203135B08F3005A08F2000A1612
:101276008A11CA250A128A15710883120313DB0024
:101286007008DA000A30F0000030F1005B08F30065
:101296005A08F2000A168A1167250A128A1570087A
:1012A600303EFC007C0883160313CF000A30F000A2
:1012B6000030F100831203135908F3005808F200B6
:1012C6000A168A1167250A128A157008303EFC0034
:1012D6007C0883160313D3000A30F0000030F100B7
:1012E600831203135908F3005808F2000A168A11EC
:1012F600CA250A128A15710883120313D9007008C9
:10130600D8000A30F0000030F1005908F300580800
:10131600F2000A168A1167250A128A157008303EED
:10132600FC007C0883160313D200CC30F100003099
:10133600F2000A168A1165230A128A150800831616
:1013460003136A036B04031DA929AA29312A0A1665
:101356008A1534270A128A15831203132608DB001E
:101366002508DA000A168A1512270A128A15831228
:1013760003132608DD002508DC005D08803AFC0022
:10138600831603134908803A7C02031DCE294808B8
:10139600831203135C020318D129D229F32983127D
:1013A60003135B08803AFC00831603134B08803A4C
:1013B6007C02031DE2294A08831203135A0203180A
:1013C600E529E629EB2983120313E001E101892AC5
:1013D600013083120313E0000030E100892A892AD4
:1013E600831603134508803AFC00831203135D0835
:1013F600803A7C02031D032A5C0883160313440209
:101406000318062A072A282A831603134708803A50
:10141600FC00831203135B08803A7C02031D172A23
:101426005A0883160313460203181A2A1B2A202A6F
:1014360083120313E001E101892A013083120313A9
:10144600E0000030E100892A892A01308312031363
:10145600E0000030E100892A892A892A83160313CD
:101466006A086B04031D382A392A892A0A168A153E
:1014760034270A128A15831203132608DB0025086F
:10148600DA000A168A1512270A128A15831203131E
:101496002608DD002508DC005D08803AFC0083167E
:1014A60003134108803A7C02031D5D2A400883121B
:1014B60003135C020318602A612A662A8312031347
:1014C600E001E101892A831603133D08803AFC00F6
:1014D600831203135D08803A7C02031D762A5C089A
:1014E600831603133C020318792A7A2A7F2A831269
:1014F6000313E001E101892A013083120313E0009E
:101506000030E100892A892A892A892A08000130BF
:1015160083160313EE000030EF000A168A150E2616
:101526000A128A151E3083120313B9003908BA004D
:101536003630B9003908BB0001300A168A15332641
:101546000A128A1503300A168A1533260A128A15D4
:10155600831203133A08F1000030031D8030F200B5
:101566000A168A1165230A128A15C830F00000305F
:10157600F1000A168A1163220A128A1501300A1628
:101586008A1533260A128A15C82A03300A168A15BE
:1015960033260A128A150A168A1184210A128A1516
:1015A6000A128A11E5200A128A1577088312031394
:1015B600B2007608B10031033204031DE32AE42A9F
:1015C600EB2A31080A128A1574230A128A15EB2AA5
:1015D60007308312031331063204031DF32AF42A5B
:1015E600FD2A3208F9003108F8000A168A113B264E
:1015F6000A128A15D5300A128A1570260A128A1519
:10160600831603135508D03E83120313B300FF302D
:1016160003180030B400831603135608D03E831215
:101626000313B500FF3003180030B6003408F1008C
:101636003308F0000A30F2000030F3000A168A116F
:101646002A210A128A158312031335087007B70078
:1016560036080318360A7107B8003808803AB90008
:101666006D08803A3902031D3A2B6C0837020318BD
:101676003D2B3E2BC82A01300A168A1533260A123C
:101686008A1503300A168A1533260A128A1583121A
:1016960003133B08F1000030031D8030F2000A16E8
:1016A6008A1165230A128A15C830F0000030F1004D
:1016B6000A168A1163220A128A1501300A168A1539
:1016C60033260A128A15013083120313E000003014
:1016D600E10083160313EE01EF01732BC82AC82A13
:1016E600080083120313AC0001300A168A1533264C
:1016F6000A128A1583120313AF01B0015430A000F9
:101706002008A9002A30A0002008AA008A2B03304E
:101716000A168A1533260A128A1583120313290814
:10172600F1000030031D8030F2000A168A1165238D
:101736000A128A150A128A11E5200A128A157608F3
:1017460083120313A0002008AC002C03031DAC2B4E
:10175600AD2B582C01300A168A1533260A128A1523
:1017660003300A168A1533260A128A1583120313C2
:101776002A08F1000030031D8030F2000A168A1193
:1017860065230A128A15C830F0000030F1000A16E7
:101796008A1163220A128A1501300A168A1533261F
:1017A6000A128A15E02C582C831203132F083004D2
:1017B600031DDE2BDF2BE42B0130AF000030B00021
:1017C6006D2CAF01B0016D2C6D2C2F033004031D61
:1017D600ED2BEE2B012C6E086F04031DF32BF42B5F
:1017E600012C0930EE000030EF006C08FF3EEC00E3
:1017F6006D080318013EFF3EED006D2C2F08A0007A
:1018060020076C3E840083130008A100840A0008A8
:10181600A2002108FF3EA30022080318013EFF3E56
:10182600A4002F08A50025076C3E8400230880002D
:10183600840A240880006D2C6D2C2F033004031DB0
:10184600252C262C382C09306E066F04031D2C2CF3
:101856002D2C382CEE01EF016C08013EEC006D08D2
:101866000318013E003EED006D2C2F08A000200756
:101876006C3E840083130008A100840A0008A200BD
:101886002108013EA30022080318013E003EA400E1
:101896002F08A50025076C3E840023088000840AD3
:1018A600240880006D2C6D2C6D2C831203132C08DC
:1018B600A000A1012108003A0319622C6D2C200812
:1018C600023A0319D72B013A0319E82B073A0319F1
:1018D600202C6D2C6D08AE006C08AD000A30F000AF
:1018E6000030F1002E08F3002D08F2000A168A11C6
:1018F60067250A128A157008303E83120313A0006A
:101906002008A7000A30F0000030F1002E08F3008E
:101916002D08F2000A168A11CA250A128A157108BC
:1019260083120313AE007008AD000A30F0000030D9
:10193600F1002E08F3002D08F2000A168A11672519
:101946000A128A157008303E83120313A00020087D
:10195600A600A8016E08303EA0002008AB00263085
:10196600F1000030F2000A168A1165230A128A1560
:101976000A168A1574260A128A152E300A168A1530
:1019860042260A128A150A168A1574260A128A151A
:10199600831203132B080A168A1542260A128A1581
:1019A6000A168A1574260A128A1530300A168A15FE
:1019B60042260A128A158A2B8A2B080001300A163B
:1019C6008A1533260A128A1583120313B401B50148
:1019D600B430A9002908AA00A830A9002908AB003C
:1019E6001130A9002908AC00C530A9002908AD00AE
:1019F600BD30A9002908AE00B930A9002908AF00FA
:101A0600D130A9002908B000C130A9002908B100C9
:101A1600CD30A9002908B200C930A9002908B300B1
:101A26000A168A15BC270A128A158312031326087A
:101A3600B7002508B6001F2D03300A168A1533266F
:101A46000A128A15831203132B08F1000030031DB6
:101A56008030F2000A168A1165230A128A150A12C4
:101A66008A11E5200A128A15770883120313A80043
:101A76007608A7000D3027062804031D432D442DA4
:101A8600C72D01300A168A1533260A128A15033025
:101A96000A168A1533260A128A150A168A11A122EF
:101AA6000A128A1583120313370883160313ED00EF
:101AB60083120313360883160313EC0083120313F1
:101AC6003708A1003608A0000A168A159E260A12B3
:101AD6008A15831203132C08F1000030031D803091
:101AE600F2000A168A1165230A128A15C830F00018
:101AF6000030F1000A168A1163220A128A15013093
:101B06000A168A1533260A128A156F2EC72DD92D65
:101B16008312031334083504031D922D932DD92DFA
:101B260036033704031D982D992D9E2D0730B600D8
:101B36000030B700D92D3608FF3EB6003708031827
:101B4600013EFF3EB700D92DD92DD92D34083504D5
:101B5600031DAE2DAF2DD92D073036063704031DD4
:101B6600B52DB62DBB2D0130B6000030B700D92DEE
:101B76003608013EB60037080318013E003EB7009E
:101B8600D92DD92DD92DD92D831203132808003A22
:101B96000319CE2DD92D27080E3A0319D92D013A4E
:101BA60003198B2D1F3A0319A92DD92D0A168A154B
:101BB60016260A128A15831203132A08F10000302A
:101BC600031D8030F2000A168A1165230A128A154F
:101BD6004F2E831203132D08F1000030031D8030B1
:101BE600F2000A168A1165230A128A151F2D83121E
:101BF60003132E08F1000030031D8030F2000A1690
:101C06008A1165230A128A151F2D831203132F08C2
:101C1600F1000030031D8030F2000A168A11652398
:101C26000A128A151F2D831203133008F1000030A3
:101C3600031D8030F2000A168A1165230A128A15DE
:101C46001F2D831203133108F1000030031D80306D
:101C5600F2000A168A1165230A128A151F2D8312AD
:101C660003133208F1000030031D8030F2000A161B
:101C76008A1165230A128A151F2D8312031333084E
:101C8600F1000030031D8030F2000A168A11652328
:101C96000A128A151F2D1F2D831203133708003AC7
:101CA6000319562E1F2D3608013A0319EC2D033A57
:101CB6000319FA2D013A0319082E073A0319162EAD
:101CC600013A0319242E033A0319322E013A031955
:101CD600402E1F2D1F2D1F2D080083120313A40055
:101CE6008316031305140A168A1112250A128A1579
:101CF600CC300A168A11ED230A128A1544300A16C8
:101D06008A11ED230A128A15831203136608A03E70
:101D1600840083130008A000200883160313E10043
:101D2600831203136508A03E84000008A000200863
:101D360083160313E2002E3083120313A00020083B
:101D460083160313E300831203136408A03E840082
:101D56000008A000200883160313E400831203136F
:101D66006308A03E84000008A00020088316031321
:101D7600E50083120313A501A6012608803AFF0099
:101D860080307F02031DC92E05302502031CCC2E90
:101D9600CD2ECF2EF22EF22E831203132508E13E0E
:101DA600840083130008A00025082407A100210849
:101DB6008400200880000130A5070318A60A003019
:101DC600A6072608803AFF0080307F02031DED2E0D
:101DD60005302502031CF02EF12ECF2EF22E4630B2
:101DE60083120313A0002008F0000A300A168A1591
:101DF60089260A128A150A168A1112250A128A15C6
:101E0600CC300A168A11ED230A128A15BE300A163C
:101E16008A11ED230A128A150A168A11A9230A12B3
:101E26008A1583120313A0002008EA000A168A11F5
:101E3600A9230A128A1583120313A0002008E900B9
:101E4600831603130514831203136908A0000430D4
:101E56000310A00DFF3E031D2B2F3F302005A100D0
:101E66006A08A20004300310A20CFF3E031D362FA1
:101E760022082104A3002308E8006A08A000033012
:101E86000310A00DFF3E031D432F0310200DA100DC
:101E96002108E70065306802031C522F532F692F73
:101EA6006430F0000030F1006808A000A1012008AD
:101EB600F2002108F3000A168A11CA250A128A15A9
:101EC600700883120313A2002208E8000A30F0000B
:101ED6000030F1006808A000A1012008F2002108E6
:101EE600F3000A168A1167250A128A1570088312EA
:101EF6000313A2002208E5000A30F0000030F100CA
:101F06006808A000A1012008F2002108F3000A16C3
:101F16008A11CA250A128A15700883120313A200B1
:101F26002208E600D601D701E71F9A2F9B2FA42F80
:101F36005608883ED60057080318013E133ED700C0
:101F4600A42F671FA72FA82FB12F5608C43ED6006F
:101F560057080318013E093ED700B12FE71EB42FDC
:101F6600B52FBE2F5608E23ED60057080318013E8D
:101F7600043ED700BE2F671EC12FC22FCB2F560897
:101F8600713ED60057080318013E023ED700CB2FFC
:101F9600E830F6000330F7005708F9005608F80055
:101FA6000A168A1178240A128A15760883120313F0
:101FB600A0002008E4006430F6000030F70057085F
:101FC600F3005608F200E830F0000330F1000A167C
:101FD6008A11E2220A128A157108F9007008F800BF
:101FE6000A168A1178240A128A15760883120313B0
:101FF600A0002008E30000000800FF1B0A28831346
:102006007F1883170008840A0319FF0A0800103096
:102016008A000408840A820700344834653461342F
:10202600743469346E346734203446346134693428
:102036006C34753472346534003444346134743429
:1020460065342F3444346134793420345334653460
:1020560074340034483465346134743469346E340D
:10206600673420344F346634663400345434723462
:1020760069346734673465347234203453346534D4
:1020860074340034483465346134743469346E34DD
:10209600673420344F346E34003457346534643436
:1020A6006E346534733464346134793400344834BE
:1020B60065346134743469346E3467343A340034C8
:1020C60054347234693467346734653472343A345C
:1020D6000034543469346D346534203453346534F3
:1020E6007434003453346134743475347234643463
:1020F600613479340034543468347534723473344A
:10210600643461347934003454347534653473344A
:10211600643461347934003444346134743465345D
:102126003A342034003446347234693464346134C9
:10213600793400344D346F346E3464346134793418
:102146000034533475346E34643461347934003475
:102156004434613479343A342034003454346934A4
:102166006D3465343A34003444346134743465343F
:102176003A340034543465346D3470343A340034AF
:102186004434613479343A34003457346534643431
:10219600003454347534653400344634723469344A
:1021A60000344D346F346E340034533475346E3429
:1021B6000034533461347434003454346834753420
:0221C6000034E3
:1021CC008312031386120630831603139F00061026
:1021DC000612861283120313061086168E300A1608
:1021EC008A11ED210A168A1100300A168A11ED2186
:1021FC000A168A1183120313861208008312031322
:10220C00A70027080A128A1570260A168A1183124B
:10221C0003132708F1000030F2000A168A11652317
:10222C000A168A11DF300A168A1542260A168A11F6
:10223C000A168A1574260A168A1143300A168A154C
:10224C0042260A168A110800F401F5012D29701C8A
:10225C003029312937297208F4070318F50A730855
:10226C00F50701300310F20DF30DFF3E031D382965
:10227C0001300310F10CF00CFF3E031D3F297008D8
:10228C007104031D4A294B292D294C297508F1008D
:10229C007408F00051290800F201F3017829F401C7
:1022AC00F50100307502643003197402031C5F29B8
:1022BC0060296229722972290130F4070318F50A82
:1022CC000030F50700307502643003197402031CEA
:1022DC0070297129622972290130F2070318F30A57
:1022EC000030F30771087302031D7E297008720217
:1022FC00031C81298229552983290800A2308312C5
:10230C000313A8002808A900AE30A8002808AA00CA
:10231C002908F1000030031D8030F2000A168A11E2
:10232C0065230A168A110A128A15BC200A168A110C
:10233C000A168A1516260A168A11831203132A08FE
:10234C00F1000030031D8030F2000A168A1165235B
:10235C000A168A11D5300A168A1104210A168A1116
:10236C00080001300A168A1533260A168A110A301B
:10237C00F0000030F100831203135F08F3005E08D5
:10238C00F2000A168A1167250A168A117008F900DC
:10239C007908FA0003300A168A1533260A168A11B0
:1023AC007A080A168A1542260A168A110830770608
:1023BC007804031DE229E329D02901300A168A1575
:1023CC0033260A168A11EC29D029D0290800F400EA
:1023DC00F201F3017308803AFF0080307F02031D85
:1023EC00F92908307202031CFC29FD29FF29242A33
:1023FC00242A8312031306120610741C062A072AB9
:10240C00092A0616092A7408F0000310700CF10052
:10241C007108F40006140130F2070318F30A0030B7
:10242C00F3077308803AFF0080307F02031D202AD7
:10243C0008307202031C232A242AFF298312031357
:10244C0006100800303431343234333434343534FB
:10245C003634373438343934303430343A34303428
:10246C0030342E34303430340034303430342F3473
:10247C00303430342F3430343034003417340034AA
:10248C000034003407340034003400341634003483
:10249C001E340034063400341E34003430343034EE
:1024AC003A34303430342E34303430340034303428
:1024BC0030343034303430340034F301F401912AA8
:1024CC00F501F6017608803AFF0080307F02031D8B
:1024DC00712A64307502031C742A752A772A8B2A98
:1024EC008B2A0130F5070318F60A0030F607760838
:1024FC00803AFF0080307F02031D862A643075020B
:10250C00031C892A8A2A772A8B2A0130F30703189D
:10251C00F40A0030F4077408803AF2007108803A2B
:10252C007202031D9B2A70087302031C9E2A9F2AA9
:10253C00662AA02A0800C32A013083160313EA0076
:10254C000030EB00E12A0130EA000030EB00E12A18
:10255C000130EA000030EB00E12A0130EA000030E3
:10256C00EB00E12A0130EA000030EB00E12AEA013D
:10257C00EB01E12AEA01EB01E12A831603136D0852
:10258C00003A0319CA2AE12A6C08013A0319A22A53
:10259C00033A0319A92A013A0319AE2A073A031977
:1025AC00B32A013A0319B82A033A0319BD2A013A8E
:1025BC000319C02AE12A0800700871040319E72ADC
:1025CC00E82A1D2BF501F50AF72A01300310F00D4E
:1025DC00F10DFF3E031DEC2A0130F4007408F507E1
:1025EC00F72AF11FFA2AFB2AEB2AFD2AFD2A710889
:1025FC007302031D032B70087202031C062B072B9E
:10260C000E2B7008F2027108031CF303F3020E2B5D
:10261C0001300310F10CF00CFF3E031D0F2B0130A9
:10262C00F502031D1A2B1B2BFD2A1D2B1D2B7308CA
:10263C00F1007208F000222B0800FA01FB01FC01EA
:10264C00FD01532B0130FA070318FB0A0030FB077E
:10265C007C087D040319332B342B4D2B0A30F000EE
:10266C000030F1007D08F3007C08F2000A168A1194
:10267C0067250A168A1170087104031D462B472B17
:10268C004D2B0630FA070318FB0A0030FB0701300C
:10269C00FC070318FD0A0030FD077D08803AF9009D
:1026AC007808803A7902031D5D2B77087C02031CA5
:1026BC00602B612B282B622B7A08642B0800F60107
:1026CC00F7018B2B76087107F4007208F3000318DE
:1026DC00F30AF61F722BF3037308F50075088312C7
:1026EC000313FF00740884000A168A1100200A16CE
:1026FC008A110A168A1542260A168A110130F60723
:10270C000318F70A0030F7078B2B76087107F400D3
:10271C007208F3000318F30AF61F952BF3037308E2
:10272C00F500750883120313FF00740884000A1661
:10273C008A1100200A168A11003A031DA62BA72B1A
:10274C00682BA82B0800F5010830F4007408F6007B
:10275C007608031DB22BB32BB52BEA2BEA2B0310F7
:10276C00F50C8312031305108316031305100000D8
:10277C000000000000000000000083160313051485
:10278C000000000000000000000000308312031362
:10279C0005180130E20062080319D52BD62BD82B73
:1027AC00F517D82B0730F4007408F00002300A1625
:1027BC008A1589260A168A110130F6027608031D3D
:1027CC00E82BE92BB52BEA2B7508EC2B0800F7004E
:1027DC000830F4007408F8007808031DF62BF72B6A
:1027EC00F92B302C302C77080139F4007408F600E2
:1027FC008312031305108316031305100000000049
:10280C000000000000007603031D0D2C0E2C122C72
:10281C00831603130514122C0730F4007408F0000F
:10282C0002300A168A1589260A168A118316031392
:10283C000514000000007708F4000310740CF50078
:10284C007508F7000130F8027808031D2E2C2F2C88
:10285C00F92B302C0800F201831603130616F30132
:10286C00F4017408803AFF0080307F02031D402C75
:10287C0008307302031C432C442C462C6F2C6F2CF9
:10288C00831203130614061E4C2C4D2C5B2C0130AA
:10289C00F000730A532C0310F00DFF3E031D512C56
:1028AC007008F1007108F2075B2C06100130F30779
:1028BC000318F40A0030F4077408803AFF008030E3
:1028CC007F02031D6B2C08307302031C6E2C6F2CC3
:1028DC00462C831203130610831603130612720878
:1028EC00772C0800FB01FC017608770403197F2C78
:1028FC00802CBD2CFD01FD0A8F2C01300310F60D30
:10290C00F70DFF3E031D842C0130FA007A08FD07F9
:10291C008F2CF71F922C932C832C952C952C0130FB
:10292C000310FB0DFC0DFF3E031D962C770879025E
:10293C00031DA22C76087802031CA52CA62CAE2C09
:10294C007608F8027708031CF903F9027B14AE2C05
:10295C0001300310F70CF60CFF3E031DAF2C0130B9
:10296C00FD02031DBA2CBB2C952CBD2CBD2C7C0858
:10297C00F7007B08F600C22C080083120313A0009A
:10298C00A301A401A101A201FC2C013083120313A9
:10299C00A3070318A40A0030A4072308240403196E
:1029AC00D82CD92CF42C0A30F0000030F10024087B
:1029BC00F3002308F2000A168A1167250A168A11F9
:1029CC0070087104031DEB2CEC2CF42C06308312D4
:1029DC000313A1070318A20A0030A20701308312C7
:1029EC000313A1070318A20A0030A2072208803A99
:1029FC00F90080307902031D052D20082102031CEB
:102A0C00082D092DCB2C0A2D831203132408F80052
:102A1C002308F700112D0800F501F6017608803A1D
:102A2C00FF0080307F02031D1D2D64307502031CD6
:102A3C00202D212D232D662D662D831203130510B9
:102A4C008316031305104630F4007408F0000230AE
:102A5C000A168A1589260A168A1183160313051479
:102A6C000830F4007408F00002300A168A15892622
:102A7C000A168A11831203130518452D462D482D6D
:102A8C00662D662D3C30F4007408F00002300A16F6
:102A9C008A1589260A168A110130F5070318F60AD9
:102AAC000030F6077608803AFF0080307F02031D65
:102ABC00612D64307502031C642D652D232D662D4C
:102ACC000800F601F31F6B2D6C2D742DF209F30920
:102ADC00F20A0319F30AF601F60A742DF11F772D89
:102AEC00782D7E2DF009F109F00A0319F10A7E2DDB
:102AFC00700871040319832D842DB92DF501F50A85
:102B0C00932D01300310F00DF10DFF3E031D882DA8
:102B1C000130F4007408F507932DF11F962D972DB5
:102B2C00872D992D992D71087302031D9F2D700807
:102B3C007202031CA22DA32DAA2D7008F20271089B
:102B4C00031CF303F302AA2D01300310F10CF00C5B
:102B5C00FF3E031DAB2D0130F502031DB62DB72D25
:102B6C00992DB92DB92D76080319BD2DBE2DC42D67
:102B7C00F209F309F20A0319F30AC42D7308F100E0
:102B8C007208F000C92D0800F601F11FCE2DCF2DD3
:102B9C00D72DF009F109F00A0319F10AF601F60A2A
:102BAC00D72DF31FDA2DDB2DE52DF209F309F20AEF
:102BBC000319F30A0130F4007408F606E52DF70149
:102BCC00F801700871040319EC2DED2D2A2EF50176
:102BDC00F50AFC2D01300310F00DF10DFF3E031D25
:102BEC00F12D0130F4007408F507FC2DF11FFF2DB9
:102BFC00002EF02D022E022E01300310F70DF80DD1
:102C0C00FF3E031D032E71087302031D0F2E700867
:102C1C007202031C122E132E1B2E7008F202710866
:102C2C00031CF303F30277141B2E01300310F10C79
:102C3C00F00CFF3E031D1C2E0130F502031D272E48
:102C4C00282E022E2A2E2A2E760803192E2E2F2EEF
:102C5C00352EF709F809F70A0319F80A352E780802
:102C6C00F1007708F0003A2E08004B30FA007A0891
:102C7C00FB0001300A168A1533260A168A113E30DB
:102C8C00FA007A08FC002630FA007A08FD004E2E75
:102C9C000A128A11E5200A168A117708F9007608BB
:102CAC00F800073078067904031D5D2E5E2E652E24
:102CBC0001300A168A1533260A168A11AD2E0330F6
:102CCC000A168A1533260A168A117B08F100003081
:102CDC00031D8030F2000A168A1165230A168A1128
:102CEC008312031360036104031D7D2E7E2E902E30
:102CFC0014300A168A1533260A168A117C08F1003C
:102D0C000030031D8030F2000A168A1165230A1662
:102D1C008A114E2E8312031360086104031D972E33
:102D2C00982E4E2E14300A168A1533260A168A113E
:102D3C007D08F1000030031D8030F2000A168A1164
:102D4C0065230A168A114E2E4E2E4E2E4E2E08003C
:102D5C0001300A168A1533260A168A11803083121E
:102D6C000313B3003308B4009C30B3003308B50030
:102D7C000A128A11E5200A168A11770883120313A6
:102D8C00B2007608B10003300A168A1533260A16EB
:102D9C008A11831203133408F1000030031D8030B4
:102DAC00F2000A168A1165230A168A110A128A1170
:102DBC0008200A168A110A168A1516260A168A116E
:102DCC00831203133508F1000030031D8030F2002C
:102DDC000A168A1165230A168A110A128A150B2003
:102DEC000A168A118312031331033204031DFF2EBA
:102DFC00002F072F31080A128A1574230A168A111C
:102E0C00072F06308312031331063204031D0F2FD4
:102E1C00102F172F01300A168A1533260A168A111D
:102E2C002C2F07308312031331063204031D1F2F7E
:102E3C00202FBE2E3208F9003108F8000A168A112C
:102E4C003B260A168A11BE2EBE2EBE2E080001305D
:102E5C0083120313C4004408C50083160313EE0148
:102E6C00EF0101300A168A1533260A168A113E2FF5
:102E7C0003300A168A1533260A168A118312031395
:102E8C004508F1000030031D8030F2000A168A114B
:102E9C0065230A168A110A168A1512260A168A1131
:102EAC00D5300A128A1570260A168A118316031356
:102EBC005508D03E83120313BE00FF3003180030B8
:102ECC00BF00831603135608D03E83120313C000B1
:102EDC00FF3003180030C1003F08F1003E08F0003D
:102EEC000A30F2000030F3000A168A112A210A1661
:102EFC008A118312031340087007C200410803189B
:102F0C00410A7107C3000A128A11E5200A168A11B8
:102F1C00770883120313BD007608BC003C033D0404
:102F2C00031D992F9A2FA12F3C080A128A1574237E
:102F3C000A168A11A12F0730831203133C063D0495
:102F4C00031DA92FAA2FB42F3D08F9003C08F80047
:102F5C000A168A113B260A168A11B42F05308312E1
:102F6C0003133C063D04031DBC2FBD2FCF2F013096
:102F7C0083160313EE000030EF000A168A150E2696
:102F8C000A168A1101300A168A1533260A168A1176
:102F9C00FF2F831203136D08803AC4004308803A54
:102FAC004402031DDB2F42086C020318DE2FDF2FB7
:102FBC003E2F01300A168A1533260A168A118312FF
:102FCC0003133D08B2003C08B1003F08B4003E08B2
:102FDC00B3004108B6004008B5004308B8004208E9
:102FEC00B7000A128A158A220A168A11FF2F3E2F61
:042FFC003E2F08005C
:103C1400831603138610080083120313861008000A
:103C24008312031386140800C0300A168A1533263B
:103C34000A168A15080083160313880185010630C5
:103C44009F0008000730831603139F008501880135
:103C540008008312031387010F30831603138700B0
:103C64000800F000831203138510051185157008F0
:103C7400880085110A168A1574260A168A15080002
:103C8400F00083120313851405118515700888004C
:103C940085110A168A1574260A168A1508003B34FB
:103CA40000342A3400340E3400340834003402342E
:103CB40000340234003413340034003400347E08F9
:103CC4008A007F0882000A168A1561260A168A1558
:103CD4008000840A04087D0603190034FF0A0319CE
:103CE400FE0A652EFF308316031388008312031324
:103CF400851585100515802E85118515881B832E45
:103D0400842E7E2E852E8316031388010800F2006C
:103D14007008F1007108F3008F2E0130F302031DC7
:103D2400942E952E8F2E962E0130F202031D9B2E7B
:103D34009C2E8A2E9D2E08008312031386168A3029
:103D44000A168A11ED210A168A1583120313210813
:103D5400F8002008F7000A168A1123230A168A1588
:103D64000A168A11ED210A168A1583120313861284
:103D7400080083120313861684300A168A11ED2173
:103D84000A168A15831203132108F8002008F70085
:103D94000A168A1123230A168A150A168A11ED2196
:103DA4000A168A158312031386120800831203135A
:103DB400861682300A168A11ED210A168A15831294
:103DC40003132108F8002008F7000A168A11232398
:103DD4000A168A150A168A11ED210A168A15831203
:103DE40003138612080083120313861680300A1602
:103DF4008A11ED210A168A15831203132108F8008B
:103E04002008F7000A168A1123230A168A150A16AF
:103E14008A11ED210A168A158312031386120800EB
:103E240083120313861685300A168A11ED210A16A9
:103E34008A150A168A1131240A168A15FA007A0894
:103E4400FB008312031386127B080A168A11C3240B
:103E54000A168A15780883120313A6007708A500AA
:103E6400332F080083120313861683300A168A112F
:103E7400ED210A168A150A168A1131240A168A15A2
:103E8400FA007A08FB008312031386127B080A16D1
:103E94008A11C3240A168A15780883120313A6000C
:103EA4007708A500552F0800831203138616873060
:103EB4000A168A11ED210A168A150A168A11312466
:103EC4000A168A15FA007A08FB0083120313861275
:103ED4007B080A168A11C3240A168A1578088312E5
:103EE4000313A6007708A500772F08008312031395
:103EF400861689300A168A11ED210A168A150A16C1
:103F04008A1131240A168A15FA007A08FB008312F2
:103F1400031386127B080A168A11C3240A168A150B
:103F2400780883120313A6007708A500992F0800C8
:103F34008312031386168D300A168A11ED210A1690
:103F44008A150A168A1131240A168A15FA007A0883
:103F5400FB008312031386127B080A168A11C324FA
:103F64000A168A15780883120313A6007708A50099
:103F7400BB2F08008312031386168B300A168A118E
:103F8400ED210A168A150A168A1131240A168A1591
:103F9400FA007A08FB008312031386127B080A16C0
:103FA4008A11C3240A168A15780883120313A600FB
:103FB4007708A500DD2F08008312031386168130CD
:103FC4000A168A11ED210A168A150A168A11312455
:103FD4000A168A15FA007A08FB0083120313861264
:103FE4007B080A168A11C3240A168A1578088312D4
:0C3FF4000313A6007708A500FF2F0800AB
:02400E00323F3F
:00000001FF
