:020000040000FA
:060000000A128A11C62F4E
:100008003228013083160313AF000030B0005028A7
:10001800013083160313AF000030B00050280130C0
:1000280083160313AF000030B00050280130831648
:100038000313AF000030B0005028013083160313BB
:10004800AF000030B000502883160313AF01B00191
:10005800502883160313AF01B001502883120313ED
:100068006E08003A0319392850286D08013A031917
:100078000528033A03190C28013A03191328073AEB
:1000880003191A28013A03192128033A03192828C1
:10009800013A03192D285028080083120313071664
:1000A800871207138713871D5A285B287228323056
:1000B800F0000030F1000A168A158D220A128A1102
:1000C8006B280130F6000030F700172A172A831230
:1000D800031387197028712865287228071D752849
:1000E80076288D283230F0000030F1000A168A1583
:1000F8008D220A128A1186280230F6000030F70095
:10010800172A172A8312031307198B288C2880288B
:100118008D28871C90289128A8283230F0000030BC
:10012800F1000A168A158D220A128A11A1280330B5
:10013800F6000030F700172A172A831203138718CE
:10014800A628A7289B28A828071CAB28AC28C328C2
:100158003230F0000030F1000A168A158D220A129A
:100168008A11BC280430F6000030F700172A172A35
:10017800831203130718C128C228B628C3280712F8
:10018800871607138713871DCA28CB28E228323021
:10019800F0000030F1000A168A158D220A128A1121
:1001A800DB280530F6000030F700172A172A8312DB
:1001B80003138719E028E128D528E228071DE52838
:1001C800E628FD283230F0000030F1000A168A15C2
:1001D8008D220A128A11F6280630F6000030F70040
:1001E800172A172A831203130719FB28FC28F0285B
:1001F800FD28871C0029012918293230F000003019
:10020800F1000A168A158D220A128A11112907305F
:10021800F6000030F700172A172A831203138718ED
:10022800162917290B291829071C1B291C293329CA
:100238003230F0000030F1000A168A158D220A12B9
:100248008A112C290830F6000030F700172A172ADF
:100258008312031307183129322926293329071253
:10026800871207178713871D3A293B2952293230ED
:10027800F0000030F1000A168A158D220A128A1140
:100288004B290930F6000030F700172A172A831285
:10029800031387195029512945295229071D552922
:1002A80056296D293230F0000030F1000A168A15FF
:1002B8008D220A128A1166290A30F6000030F700EA
:1002C800172A172A8312031307196B296C29602927
:1002D8006D29871C7029712988293230F000003077
:1002E800F1000A168A158D220A128A1181290B300B
:1002F800F6000030F700172A172A8312031387180D
:10030800862987297B298829071C8B298C29A329D9
:100318003230F0000030F1000A168A158D220A12D8
:100328008A119C290C30F6000030F700172A172A8A
:10033800831203130718A129A2299629A3290712B2
:10034800871207138717871DAA29AB29C2293230BC
:10035800F0000030F1000A168A158D220A128A115F
:10036800BB290D30F6000030F700172A172A831230
:1003780003138719C029C129B529C229071DC52911
:10038800C629DD293230F0000030F1000A168A153E
:100398008D220A128A11D6290E30F6000030F70095
:1003A800172A172A831203130719DB29DC29D029F6
:1003B800DD29871CE029E129F8293230F0000030D6
:1003C800F1000A168A158D220A128A11F1290F30B6
:1003D800F6000030F700172A172A8312031387182C
:1003E800F629F729EB29F829071CFB29FC29142AE7
:1003F8003230F0000030F1000A168A158D220A12F8
:100408008A110C2A1030F6000030F700172A172A34
:10041800831203130718112A122A062A142A142AE7
:10042800F601F701172A080001300A168A152E204E
:100438000A128A1183120313C601C701BC01BD0148
:10044800BE01BF01B801B901B630A9002908BA0038
:100458001F30A9002908BB002F308400AA30A9004A
:100468000408AA000930AB00290884008317000893
:10047800AC00A90A2A08840083132C088000AA0A61
:10048800AB0B382A0A168A15DF210A128A11831241
:1004980003132608E6002508E5000A168A15BD217B
:1004A8000A128A11831203132608E4002508E300C0
:1004B8000A168A1501220A128A11831203132608C2
:1004C800E2002508E1006408C1006308C00066086E
:1004D800C3006508C2006208C5006108C400742A28
:1004E80003300A168A152E200A128A118312031362
:1004F8003A08F1000030031D8030F2000A168A1510
:1005080066240A128A110230831203134206430436
:10051800031D8F2A902AAD2A0130B8000030B90097
:10052800BC01BD01BE01BF011F30400641040319D3
:100538009E2A9F2AA72A1E3040064104031DA52A89
:10054800A62AE92AA72A1C30C0000030C100E92ADF
:10055800E92A0430420643040319B32AB42ACA2AF2
:100568000630420643040319BA2ABB2ACA2A0930AC
:10057800420643040319C12AC22ACA2A0B3042067A
:100588004304031DC82AC92ADF2ACA2AB801B901A7
:100598000130BC000030BD00BE01BF011F30400665
:1005A8004104031DD82AD92AE92A1E30C000003088
:1005B800C100E92AE92AB801B901BC01BD0101302D
:1005C800BE000030BF00E92AE92A0A128A11512028
:1005D8000A128A11770883120313A8007608A70065
:1005E8000D3027062804031DFA2AFB2A552B013053
:1005F8000A168A152E200A128A1103300A168A153D
:100608002E200A128A11831203134508A1004408F8
:10061800A0000A168A15E7200A128A11831203130A
:100628004308A1004208A0000A168A15CA200A1227
:100638008A11831203134108A1004008A0000A167A
:100648008A1590200A128A11831203136E08A100DA
:100658006D08A0000A168A15AD200A128A110A121E
:100668008A1104200A128A11831203133B08F1002D
:100678000030031D8030F2000A168A1566240A121B
:100688008A11C830F0000030F1000A168A15632379
:100698000A128A1101300A168A152E200A128A11A6
:1006A800C52F0E308312031327062804031D5D2B64
:1006B8005E2B702B023046064704031D642B652B06
:1006C800682BC601C701702B0130C6070318C70A7B
:1006D8000030C707702B702B0F3027062804031D26
:1006E800762B772B322D46084704031D7C2B7D2B58
:1006F800B02C3E033F04031D822B832BE52B4608B9
:10070800A9002907403E840083130008AA00840A30
:100718000008AB002A032B04031D932B942BB32B47
:100728004608A9002907403E84001F308000840A3B
:10073800003080006D036E04031DA32BA42BA92B8E
:100748000730ED000030EE00B02C6D08FF3EED00E4
:100758006E080318013EFF3EEE00B02CB02C460890
:10076800A9002907403E84000008AA00840A00085E
:10077800AB002A08FF3EAC002B080318013EFF3EE1
:10078800AD004608AE002E07403E84002C088000CD
:10079800840A2D0880006D036E04031DD42BD52B0D
:1007A800DA2B0730ED000030EE00B02C6D08FF3E6C
:1007B800ED006E080318013EFF3EEE00B02CB02C91
:1007C800B02C3C033D04031DEA2BEB2B4D2C4608B3
:1007D800A9002907403E840083130008AA00840A60
:1007E8000008AB002A032B04031DFB2BFC2B1B2C3E
:1007F8004608A9002907403E84001E308000840A6C
:10080800003080006D036E04031D0B2C0C2C112C82
:100818000730ED000030EE00B02C6D08FF3EED0013
:100828006E080318013EFF3EEE00B02CB02C4608BF
:10083800A9002907403E84000008AA00840A00088D
:10084800AB002A08FF3EAC002B080318013EFF3E10
:10085800AD004608AE002E07403E84002C088000FC
:10086800840A2D0880006D036E04031D3C2C3D2C6A
:10087800422C0730ED000030EE00B02C6D08FF3E32
:10088800ED006E080318013EFF3EEE00B02CB02CC0
:10089800B02C4608A9002907403E840083130008AD
:1008A800AA00840A0008AB002A032B04031D5D2C50
:1008B8005E2C7D2C4608A9002907403E84001C3088
:1008C8008000840A003080006D036E04031D6D2CC7
:1008D8006E2C732C0730ED000030EE00B02C6D0844
:1008E800FF3EED006E080318013EFF3EEE00B02CFF
:1008F800B02C4608A9002907403E84000008AA0039
:10090800840A0008AB002A08FF3EAC002B08031835
:10091800013EFF3EAD004608AE002E07403E840073
:100928002C088000840A2D0880006D036E04031DC6
:100938009E2C9F2CA42C0730ED000030EE00B02C2C
:100948006D08FF3EED006E080318013EFF3EEE0005
:10095800B02CB02CB02CB02C46034704031DB52C8A
:10096800B62CF02C4608A9002907403E84008313C2
:100978000008AA00840A0008AB002A032B04031D00
:10098800C62CC72CD22C4608A9002907403E840053
:100998000C308000840A00308000F02C4608A90042
:1009A8002907403E84000008AA00840A0008AB001A
:1009B8002A08FF3EAC002B080318013EFF3EAD009D
:1009C8004608AE002E07403E84002C088000840AAA
:1009D8002D088000F02CF02C023046064704031D39
:1009E800F62CF72C322D4608A9002907403E840032
:1009F80083130008AA00840A0008AB002A082B0405
:100A0800031D072D082D132D4608A9002907403E70
:100A1800840063308000840A00308000322D46084C
:100A2800A9002907403E84000008AA00840A00089B
:100A3800AB002A08FF3EAC002B080318013EFF3E1E
:100A4800AD004608AE002E07403E84002C0880000A
:100A5800840A2D088000322D322D322D10302706C1
:100A68002804031D382D392DFD2E46084704031D83
:100A78003E2D3F2D7B2E3E033F04031D442D452D67
:100A8800AA2D4608A9002907403E840083130008C0
:100A9800AA00840A0008AB001F302A062B04031D95
:100AA800562D572D772D4608A9002907403E84006A
:100AB80001308000840A0030800007306D066E0423
:100AC800031D672D682D6D2D0130ED000030EE00FF
:100AD8007B2E6D08013EED006E080318013E003EB6
:100AE800EE007B2E7B2E4608A9002907403E840095
:100AF8000008AA00840A0008AB002A08013EAC00DE
:100B08002B080318013E003EAD004608AE002E0734
:100B1800403E84002C088000840A2D08800007309D
:100B28006D066E04031D992D9A2D9F2D0130ED0041
:100B38000030EE007B2E6D08013EED006E080318B4
:100B4800013E003EEE007B2E7B2E7B2E3C033D04B7
:100B5800031DAF2DB02D152E4608A9002907403ECC
:100B6800840083130008AA00840A0008AB001E3022
:100B78002A062B04031DC12DC22DE22D4608A9000B
:100B88002907403E840001308000840A003080003C
:100B980007306D066E04031DD22DD32DD82D0130DC
:100BA800ED000030EE007B2E6D08013EED006E0872
:100BB8000318013E003EEE007B2E7B2E4608A9005E
:100BC8002907403E84000008AA00840A0008AB00F8
:100BD8002A08013EAC002B080318013E003EAD0078
:100BE8004608AE002E07403E84002C088000840A88
:100BF8002D08800007306D066E04031D042E052E97
:100C08000A2E0130ED000030EE007B2E6D08013E0B
:100C1800ED006E080318013E003EEE007B2E7B2E91
:100C28007B2E4608A9002907403E8400831300084C
:100C3800AA00840A0008AB001C302A062B04031DF6
:100C4800262E272E472E4608A9002907403E840055
:100C580001308000840A0030800007306D066E0481
:100C6800031D372E382E3D2E0130ED000030EE00EA
:100C78007B2E6D08013EED006E080318013E003E14
:100C8800EE007B2E7B2E4608A9002907403E8400F3
:100C98000008AA00840A0008AB002A08013EAC003C
:100CA8002B080318013E003EAD004608AE002E0793
:100CB800403E84002C088000840A2D0880000730FC
:100CC8006D066E04031D692E6A2E6F2E0130ED002D
:100CD8000030EE007B2E6D08013EED006E08031813
:100CE800013E003EEE007B2E7B2E7B2E7B2E4603A4
:100CF8004704031D802E812EBC2E4608A900290713
:100D0800403E840083130008AA00840A0008AB0050
:100D18000C302A062B04031D922E932E9E2E460875
:100D2800A9002907403E840001308000840A003071
:100D38008000BC2E4608A9002907403E8400000810
:100D4800AA00840A0008AB002A08013EAC002B0860
:100D58000318013E003EAD004608AE002E07403E97
:100D680084002C088000840A2D088000BC2EBC2E2C
:100D7800023046064704031DC22EC32EFD2E460828
:100D8800A9002907403E840083130008AA00840AAA
:100D98000008AB0063302A062B04031DD42ED52E81
:100DA800DE2E4608A9002907403E84008001840AF7
:100DB8008001FD2E4608A9002907403E840000084E
:100DC800AA00840A0008AB002A08013EAC002B08E0
:100DD8000318013E003EAD004608AE002E07403E17
:100DE80084002C088000840A2D088000FD2EFD2E2A
:100DF800FD2E4308E6004208E5004108E4004008EB
:100E0800E3004508E2004408E1000A30F000003041
:100E1800F1006408F3006308F2000A168A15B9267F
:100E28000A128A117008303E83120313A900290898
:100E3800B0000A30F0000030F1006408F3006308E5
:100E4800F2000A168A151C270A128A1171088312E1
:100E58000313E4007008E3000A30F0000030F100EA
:100E68006408F3006308F2000A168A15B9260A1204
:100E78008A117008303E83120313A9002908AF00B5
:100E88000A30F0000030F1006608F3006508F2004F
:100E98000A168A15B9260A128A117008303E83127A
:100EA8000313A9002908B3000A30F0000030F1004C
:100EB8006608F3006508F2000A168A151C270A124C
:100EC8008A11710883120313E6007008E5000A30DE
:100ED800F0000030F1006608F3006508F2000A1619
:100EE8008A15B9260A128A117008303E8312031334
:100EF800A9002908B2000A30F0000030F1006208A9
:100F0800F3006108F2000A168A15B9260A128A1136
:100F18007008303E83120313A9002908B6000A306E
:100F2800F0000030F1006208F3006108F2000A16D0
:100F38008A151C270A128A11710883120313E2000A
:100F48007008E1000A30F0000030F1006208F30098
:100F58006108F2000A168A15B9260A128A11700861
:100F6800303E83120313A9002908B5002F30F10081
:100F78000030F2000A168A1566240A128A11742AA9
:100F8800742A08008317D230FD001C30FE0024307C
:100F9800FF00903084000A168A1541200A128A112F
:100FA8008313F030FD001830FE007A30FF00DA308D
:100FB80084000A168A1541200A128A118317D23032
:100FC8008400E4300A168A1101200A128A11831358
:100FD800A0308400BE300A168A1101200A128A1134
:100FE8006130840070300A168A1101200A128A11B1
:100FF80083010A128A158B2AFF1B0A2883137F187C
:1010080083170008840A0319FF0A080008308A00B9
:101018000408840A8207003448346534613474341F
:1010280069346E34673420344634613469346C343E
:1010380075347234653400343234343420344834EE
:101048006F347534723420346934733420346F3417
:101058006E34003444346134743465342F34443489
:10106800613479342034533465347434003448346A
:1010780065346134743469346E34673420344F34E1
:1010880066346634003454347234693467346734EF
:10109800653472342034533465347434003448343D
:1010A80065346134743469346E34673420344F34B1
:1010B8006E3400345734653464346E3465347334B4
:1010C80064346134793400344834653461347434B8
:1010D80069346E3467343A340034543472346934C1
:1010E80067346734653472343A34003454346934BC
:1010F8006D346534203453346534743400345334D7
:10110800613474347534723464346134793400343D
:1011180054346834753472347334643461347934D3
:101128000034543475346534733464346134793438
:10113800003444346134743465343A34203400342F
:1011480046347234693464346134793400344D344B
:101158006F346E3464346134793400345334753404
:101168006E3464346134793400344434613479340D
:101178003A3420340034543469346D3465343A34A4
:10118800003444346134743465343A3400345434AB
:0A11980065346D3470343A340034CD
:1011A400F000831203138514051185157008880057
:1011B40085110A168A1550200A128A15080083120E
:1011C4000313A4008316031305140A168A15642650
:1011D4000A128A15CC300A168A15AA240A128A150C
:1011E40044300A168A15AA240A128A158316031390
:1011F4003908A03E84008317000883120313A0005B
:10120400200883160313A6003808A03E84000008B3
:1012140083120313A000200883160313A7002E30A3
:1012240083120313A000200883160313A8003708B1
:10123400A03E8400000883120313A0002008831634
:101244000313A9003608A03E840000088312031388
:10125400A000200883160313AA0083120313A50118
:10126400A6012608803AFF0080307F02031D3C2936
:1012740005302502031C3F29402942296529652997
:10128400831203132508A63E840083130008A000DC
:1012940025082407A10021088400200880000130CB
:1012A400A5070318A60A0030A6072608803AFF00FF
:1012B40080307F02031D602905302502031C632949
:1012C400642942296529463083120313A0002008AB
:1012D400F0000A300A168A1565200A128A150A16C1
:1012E4008A1564260A128A15CC300A168A15AA248D
:1012F4000A128A15BE300A168A15AA240A128A15F9
:101304000A168A15EE240A128A1583120313A00002
:10131400200883160313BC000A168A15EE240A1249
:101324008A1583120313A000200883160313BB003D
:1013340005143B0883120313A00004300310A00D0E
:10134400FF3E031DA0293F302005A100831603138F
:101354003C0883120313A20004300310A20CFF3EC6
:10136400031DAF2922082104A3002308EF008316DC
:1013740003133C0883120313A00003300310A00DD1
:10138400FF3E031DC0290310200DA1002108831670
:101394000313BA006530831203136F02031CD329AD
:1013A400D429EA296430F0000030F1006F08A0006D
:1013B400A1012008F2002108F3000A168A151C274F
:1013C4000A128A15700883120313A2002208EF0080
:1013D4000A30F0000030F1006F08A000A1012008DD
:1013E400F2002108F3000A168A15B9260A128A1592
:1013F400700883120313A200220883160313B80093
:101404000A30F0000030F100831203136F08A000CB
:10141400A1012008F2002108F3000A168A151C27EE
:101424000A128A15700883120313A2002208831675
:101434000313B900AB01AC01BA1F212A222A2B2ABB
:101444002B08883EAB002C080318013E133EAC0069
:101454002B2A3A1F2E2A2F2A382A2B08C43EAB00E7
:101464002C080318013E093EAC00382ABA1E3B2A58
:101474003C2A452A2B08E23EAB002C080318013E07
:10148400043EAC00452A3A1E482A492A522A2B080F
:10149400713EAB002C080318013E023EAC00522AF8
:1014A400E830F6000330F7002C08F9002B08F800A8
:1014B4000A168A157B250A128A15760883120313E5
:1014C400A000200883160313B7006430F600003030
:1014D400F7002C08F3002B08F200E830F00003308A
:1014E400F1000A168A15A1230A128A157108F90057
:1014F4007008F8000A168A157B250A128A157608E0
:1015040083120313A000200883160313B6000000FF
:1015140008000A168A1511200A128A150A168A1555
:1015240026200A128A150A168A151F200A128A15FD
:101534000A168A155B210A128A15BE30840090307F
:1015440083120313DD000408DE001030DF005D08A1
:10155400840083170008E000DD0A5E08840083131A
:1015640060088000DE0ADF0BA92ABE300A168A153D
:1015740015260A128A150A168A1505200A128A15D2
:1015840083160313D801D901B101B2010130AF00B0
:101594000030B0000130B3000030B4000130AD00C1
:1015A4000030AE000C300A168A152E200A128A1555
:1015B40001300A168A152E200A128A1503300A16DB
:1015C4008A152E200A128A1538300A168A152E20FA
:1015D4000A128A150A168A1509200A128A150A1689
:1015E4008A1523220A128A15831203132608EE0091
:1015F4002508ED000A128A1104200A128A150A1617
:101604008A1158210A128A153230F0000030F10094
:101614000A168A1563230A128A15102B0A168A15CC
:1016240023220A128A15831203132608EE002508C2
:10163400ED0003300A168A152E200A128A15831625
:1016440003136A08D03ED200FF3003180030D300E1
:101654006B08D03ED400FF3003180030D500530887
:10166400F1005208F0000A30F2000030F3000A16CC
:101674008A1109200A128A15831603135408700765
:10168400D60055080318550A7107D7005708A1005A
:101694005608A0006C0883120313DD00DE015D0808
:1016A40083160313CE00831203135E0883160313F9
:1016B400CF006D0883120313DD00DE015D0883167D
:1016C4000313D000831203135E0883160313D1009F
:1016D4004F08A3004E08A2005108A5005008A4001A
:1016E4000A128A1151200A128A15770883160313E5
:1016F400D9007608D8000A168A15BF220A128A155C
:10170400831603136A08D03ED200FF30031800305A
:10171400D3006B08D03ED400FF3003180030D5004E
:101724005308F1005208F0000A30F2000030F300D0
:101734000A168A1109200A128A15831603135408FB
:101744007007D60055080318550A7107D7006D08AD
:1017540083120313DD00DE015D0883160313CE003C
:10176400831203135E0883160313CF006E088312DB
:101774000313DD00DE015D0883160313D00083121A
:1017840003135E0883160313D10058035904031D81
:10179400CC2BCD2BD42B58080A168A1169260A1291
:1017A4008A15D42B06308316031358065904031DD7
:1017B400DC2BDD2BED2B590883120313B6008316A3
:1017C4000313580883120313B5000A168A11312033
:1017D4000A128A15ED2B0730831603135806590491
:1017E400031DF52BF62B002C5908F9005808F800B6
:1017F4000A168A158D270A128A15002C09308316B9
:10180400031358065904031D082C092C192C5908D4
:1018140083120313A80083160313580883120313B7
:10182400A7000A128A1511250A128A15192C0830E4
:101834008316031358065904031D212C222C2C2C27
:101844005908F9005808F8000A168A15F2220A12F3
:101854008A152C2C0D308316031358065904031DC6
:10186400342C352C452C590883120313A8008316F5
:101874000313580883120313A7000A128A111822AB
:101884000A128A15452C831603135708803A8312CB
:101894000313DD00831603135B08803A83120313DA
:1018A4005D02031D592C831603135A085602031CA8
:1018B4005C2C5D2C952C83160313B301B4015908D9
:1018C40083120313C90083160313580883120313E6
:1018D400C80083160313530883120313CB00831623
:1018E4000313520883120313CA0083160313550803
:1018F40083120313CD0083160313540883120313B6
:10190400CC0083160313570883120313CF008316E6
:101914000313560883120313CE000A168A112D25C9
:101924000A128A15952C831603135B08803A8312D6
:101934000313DD00831603135708803A831203133D
:101944005D02031DA92C8316031356085A02031CB7
:10195400AC2CAD2C072D831603135708803A831241
:101964000313DD00831603132108803A8312031343
:101974005D02031DC12C83160313200856020318AD
:10198400C42CC52C072D8316031333033404031D01
:10199400CC2CCD2C072D31083204031DD22CD32C92
:1019A400072D590883120313D40083160313580810
:1019B40083120313D30083160313530883120313F0
:1019C400D60083160313520883120313D50083161B
:1019D4000313550883120313D80083160313540802
:1019E40083120313D70083160313570883120313B8
:1019F400DA0083160313560883120313D9000A1658
:101A04008A110A240A128A15072D0A168A115821E6
:101A14000A128A15102B102B0A128A110028013081
:101A24000A168A152E200A128A1583120313C0017E
:101A3400C101B030A9002908B8006B30A9002908F9
:101A4400B9000A168A1545220A128A15831203134D
:101A54002608E8002508E7000A168A159B210A12C1
:101A64008A15831203132608EA002508E9000A16DA
:101A74008A1579210A128A15831203132608EC00A9
:101A84002508EB006C08BB006B08BA006A08BD00AF
:101A94006908BC006808BF006708BE00512D2F30DC
:101AA4008400B33083120313A9000408AA00093088
:101AB400AB002908840083170008AC00A90A2A088F
:101AC400840083132C088000AA0AAB0B5B2D03301F
:101AD4000A168A152E200A128A158312031338084F
:101AE400F1000030031D8030F2000A168A156624C6
:101AF4000A128A150A128A1151200A128A157708C5
:101B040083120313A8007608A700093027062804C7
:101B1400031D8D2D8E2D242F3B08A1003A08A00013
:101B24000A168A1504210A128A15831203133D0822
:101B3400A1003C08A0000A168A1521210A128A1560
:101B4400831203133F08A1003E08A0000A168A1559
:101B54003E210A128A1501300A168A152E200A120D
:101B64008A1503300A168A152E200A128A15831242
:101B740003133908F1000030031D8030F2000A1607
:101B84008A1566240A128A15C830F0000030F10064
:101B94000A168A1563230A128A1501300A168A1551
:101BA4002E200A128A15FF2F242F023083120313CA
:101BB40040064104031DDF2DE02DE32DC001C101CA
:101BC400362F0130C0070318C10A0030C107362F71
:101BD400362F40084104031DF02DF12D612E83168C
:101BE40003132D032E04031DF82DF92D352E831216
:101BF40003134008A90029073A3E84008313000810
:101C0400AA00840A0008AB002A082B04031D0B2E2B
:101C14000C2E172E4008A90029073A3E84001730DD
:101C24008000840A00308000362F4008A90029076C
:101C34003A3E84000008AA00840A0008AB002A087F
:101C4400FF3EAC002B080318013EFF3EAD004008E8
:101C5400AE002E073A3E84002C088000840A2D082A
:101C64008000362F362F831603132D082E04031DF0
:101C74003C2E3D2E3F2E362F362F83120313400861
:101C8400A90029073A3E840083130008AA00840AA5
:101C94000008AB002A08FF3EAC002B080318013EE5
:101CA400FF3EAD004008AE002E073A3E84002C08EB
:101CB4008000840A2D088000362F362F362F4008E6
:101CC400A90029073A3E840083130008AA00840A65
:101CD4000008AB002A082B04031D712E722E7D2EE2
:101CE4004008A90029073A3E84003B308000840A5A
:101CF40000308000362F4008A90029073A3E8400AE
:101D04000008AA00840A0008AB002A08FF3EAC00C1
:101D14002B080318013EFF3EAD004008AE002E071D
:101D24003A3E84002C088000840A2D088000362F57
:101D3400362F362F40084104031DA12EA22EE92E72
:101D4400831603132D032E04031DA92EAA2E362F4A
:101D5400831203134008A90029073A3E8400831321
:101D64000008AA00840A0008AB0017302A062B04D6
:101D7400031DBD2EBE2EC72E4008A90029073A3EDA
:101D840084008001840A8001362F4008A9002907B5
:101D94003A3E84000008AA00840A0008AB002A081E
:101DA400013EAC002B080318013E003EAD00400884
:101DB400AE002E073A3E84002C088000840A2D08C9
:101DC4008000362F362F362F362F362F362F4008E9
:101DD400A90029073A3E840083130008AA00840A54
:101DE4000008AB003B302A062B04031DFA2EFB2E01
:101DF400042F4008A90029073A3E84008001840A80
:101E04008001362F4008A90029073A3E84000008C3
:101E1400AA00840A0008AB002A08013EAC002B0883
:101E24000318013E003EAD004008AE002E073A3EC6
:101E340084002C088000840A2D088000362F362F59
:101E4400362F362F831203132808003A03192B2F39
:101E5400362F27080A3A0319D72D013A0319EB2D17
:101E6400073A03199C2E362F83123B08EC003A08DC
:101E7400EB003D08EA003C08E9003F08E8003E08A2
:101E8400E7000A30F0000030F1006C08F3006B0842
:101E9400F2000A168A15B9260A128A157008303E0D
:101EA40083120313A9002908B0000A30F00000309F
:101EB400F1006C08F3006B08F2000A168A151C275F
:101EC4000A128A15710883120313EC007008EB00E0
:101ED4000A30F0000030F1006C08F3006B08F200E7
:101EE4000A168A15B9260A128A157008303E83121A
:101EF4000313A9002908AF000A30F0000030F100F4
:101F04006A08F3006908F2000A168A15B9260A124B
:101F14008A157008303E83120313A9002908B30000
:101F24000A30F0000030F1006A08F3006908F2009A
:101F34000A168A151C270A128A15710883120313BC
:101F4400EA007008E9000A30F0000030F1006A0885
:101F5400F3006908F2000A168A15B9260A128A15CE
:101F64007008303E83120313A9002908B2000A3016
:101F7400F0000030F1006808F3006708F2000A1668
:101F84008A15B9260A128A157008303E8312031383
:101F9400A9002908B6000A30F0000030F1006808F2
:101FA400F3006708F2000A168A151C270A128A151C
:101FB400710883120313E8007008E7000A30F00088
:101FC4000030F1006808F3006708F2000A168A1569
:101FD400B9260A128A157008303E83120313A90029
:101FE4002908B5002F30F1000030F2000A168A15D6
:0C1FF40066240A128A15512D512D080098
:1020020064008001840A04060319003404060228CD
:10201200F401F5010C28701C0F28102816287208EC
:10202200F4070318F50A7308F50701300310F20DDF
:10203200F30DFF3E031D172801300310F10CF00CC5
:10204200FF3E031D1E2870087104031D29282A283B
:102052000C282B287508F1007408F00030280800BD
:1020620001300A168A152E200A168A118E30831222
:102072000313B7003708B800AA30B7003708B90011
:102082000A128A1151200A168A1177088312031341
:10209200B6007608B50003300A168A152E200A16F5
:1020A2008A11831203133808F1000030031D8030B7
:1020B200F2000A168A1566240A168A110A168A116D
:1020C2003E220A168A110A168A1518200A168A1141
:1020D200831203133908F1000030031D8030F2002F
:1020E2000A168A1566240A168A110A168A11B0205F
:1020F2000A168A118312031335033604031D82283C
:1021020083288A2835080A168A1169260A168A112E
:102112008A2806308312031335063604031D9228DB
:1021220093289A2801300A168A152E200A168A1137
:10213200AF2807308312031335063604031DA22885
:10214200A32841283608F9003508F8000A168A152E
:102152008D270A168A1141284128412808000A16AB
:102162008A1523220A168A11831203132608EE0007
:102172002508ED009C30FC007C08A7008630FC009E
:102182007C08A8004F30FC007C08A9007D30FC00D0
:102192007C08AA009530FC007C08AB007430FC007F
:1021A2007C08AC00A330FC007C08AD00392927086C
:1021B200F1000030031D8030F2000A168A156624F1
:1021C2000A168A115729831203132808F1000030D6
:1021D200031D8030F2000A168A1566240A168A1137
:1021E2005729831203132908F1000030031D8030A0
:1021F200F2000A168A1566240A168A1157298312D2
:1022020003132A08F1000030031D8030F2000A1681
:102212008A1566240A168A115729831203132B087A
:10222200F1000030031D8030F2000A168A15662480
:102232000A168A115729831203132C08F100003061
:10224200031D8030F2000A168A1566240A168A11C6
:102252005729831203132D08F1000030031D80302B
:10226200F2000A168A1566240A168A115729572976
:10227200831203136E08003A0319402957296D0887
:10228200013A0319D828033A0319E428013A031939
:10229200F228073A03190029013A03190E29033AD1
:1022A20003191C29013A03192A2957290800831600
:1022B20003132F033004031D5F296029E7290A163F
:1022C2008A159B210A168A11831203132608EA0033
:1022D2002508E9000A168A1579210A168A1183123D
:1022E20003132608EC002508EB006C08803AFC007A
:1022F200831603136708803A7C02031D842966084B
:10230200831203136B02031887298829A9298312D0
:1023120003136A08803AFC00831603136908803AA3
:102322007C02031D982968088312031369020318AB
:102332009B299C29A12983160313B301B4013D2AC9
:10234200013083160313B3000030B4003D2A3D2A46
:10235200831603136308803AFC00831203136C088C
:10236200803A7C02031DB9296B08831603136202AB
:102372000318BC29BD29DE29831603136508803A98
:10238200FC00831203136A08803A7C02031DCD29E4
:1023920069088316031364020318D029D129D629A8
:1023A20083160313B301B4013D2A013083160313CC
:1023B200B3000030B4003D2A3D2A013083160313D6
:1023C200B3000030B4003D2A3D2A3D2A2F083004D4
:1023D200031DEC29ED293D2A0A168A159B210A16AE
:1023E2008A11831203132608EA002508E9000A1657
:1023F2008A1579210A168A11831203132608EC0022
:102402002508EB006C08803AFC00831603135F0872
:10241200803A7C02031D112A5E08831203136B02A9
:102422000318142A152A1A2A83160313B301B401B6
:102432003D2A831603173D08803AFC0083120313DA
:102442006C08803A7C02031D2A2A6B088316031744
:102452003C0203182D2A2E2A332A83160313B301B2
:10246200B4013D2A013083160313B3000030B400D7
:102472003D2A3D2A3D2A3D2A08000A168A15DF21F7
:102482000A168A11831203132608E6002508E500BE
:102492000A168A15BD210A168A1183120313260809
:1024A200E4002508E3000A168A1501220A168A1199
:1024B200831203132608E2002508E1000A30F00027
:1024C2000030F1006608F3006508F2000A168A156A
:1024D200B9260A168A117008303EFC007C08831661
:1024E2000317C4000A30F0000030F1008312031316
:1024F2006608F3006508F2000A168A151C270A16F8
:102502008A11710883120313E6007008E5000A308D
:10251200F0000030F1006608F3006508F2000A16C8
:102522008A15B9260A168A117008303EFC007C080A
:1025320083160317C3000A30F0000030F100831243
:1025420003136408F3006308F2000A168A15B92619
:102552000A168A117008303EFC007C0883160317A5
:10256200C1000A30F0000030F10083120313640846
:10257200F3006308F2000A168A151C270A168A114C
:10258200710883120313E4007008E3000A30F000BC
:102592000030F1006408F3006308F2000A168A159D
:1025A200B9260A168A117008303EFC007C08831690
:1025B2000317C0000A30F0000030F1008312031349
:1025C2006208F3006108F2000A168A15B9260A1693
:1025D2008A117008303EFC007C0883160317C7007E
:1025E2000A30F0000030F100831203136208F30096
:1025F2006108F2000A168A151C270A168A11710848
:1026020083120313E2007008E1000A30F000003088
:10261200F1006208F3006108F2000A168A15B92671
:102622000A168A117008303EFC007C0883160317D4
:10263200C600C030F1000130F2000A168A15662485
:102642000A168A1108000A168A1545220A168A11E4
:10265200831203132608E8002508E7000A168A15E4
:102662009B210A168A11831203132608EA00250801
:10267200E9000A168A1579210A168A1183120313B0
:102682002608EC002508EB000A30F0000030F100CB
:102692006C08F3006B08F2000A168A15B9260A16AE
:1026A2008A117008303EFC007C0883160317CA00AA
:1026B2000A30F0000030F100831203136C08F300BB
:1026C2006B08F2000A168A151C270A168A1171086D
:1026D20083120313EC007008EB000A30F0000030A4
:1026E200F1006C08F3006B08F2000A168A15B9268D
:1026F2000A168A117008303EFC007C088316031704
:10270200C9000A30F0000030F100831203136A0896
:10271200F3006908F2000A168A15B9260A168A1108
:102722007008303EFC007C0883160317CD000A3087
:10273200F0000030F100831203136A08F300690805
:10274200F2000A168A151C270A168A1171088312CA
:102752000313EA007008E9000A30F0000030F100CB
:102762006A08F3006908F2000A168A15B9260A16E1
:102772008A117008303EFC007C0883160317CC00D7
:102782000A30F0000030F100831203136808F300EE
:102792006708F2000A168A15B9260A168A11700805
:1027A200303EFC007C0883160317D0000A30F0008C
:1027B2000030F100831203136808F3006708F20087
:1027C2000A168A151C270A168A1171088312031326
:1027D200E8007008E7000A30F0000030F1006808F5
:1027E200F3006708F2000A168A15B9260A168A113A
:1027F2007008303EFC007C0883160317CF00C930F6
:10280200F1000130F2000A168A1566240A168A11AE
:102812000800013083120313DB005B08DC0083161F
:102822000313B101B20101300A168A152E200A16CD
:102832008A111B2C03300A168A152E200A168A11B9
:10284200831203135C08F1000030031D8030F20094
:102852000A168A1566240A168A110A168A150D2086
:102862000A168A11EA300A128A15E1200A168A111A
:10287200831603136A08D03E83120313D500FF3078
:1028820003180030D600831603136B08D03E831260
:102892000313D700FF3003180030D8005608F100A8
:1028A2005508F0000A30F2000030F3000A168A11CF
:1028B20009200A168A118312031357087007D900D8
:1028C20058080318580A7107DA000A128A115120AF
:1028D2000A168A11770883120313D4007608D300EC
:1028E20053035404031D762C772C7E2C53080A16AE
:1028F2008A1169260A168A117E2C06308312031366
:1029020053065404031D862C872C912C5408B600C0
:102912005308B5000A168A1131200A168A11912C21
:1029220007308312031353065404031D992C9A2C67
:10293200A42C5408F9005308F8000A168A158D27AA
:102942000A168A11A42C0930831203135306540465
:10295200031DAC2CAD2CB72C5408A8005308A700BB
:102962000A128A1511250A168A11B72C0830831209
:10297200031353065404031DBF2CC02CCA2C540845
:10298200F9005308F8000A168A15F2220A168A116B
:10299200CA2C0D308312031353065404031DD22C88
:1029A200D32CDD2C5408A8005308A7000A128A1160
:1029B20018220A168A11DD2C0530831203135306DE
:1029C2005404031DE52CE62CF82C01308316031366
:1029D200B1000030B2000A168A1509200A168A11BF
:1029E20001300A168A152E200A168A112C2D8316FA
:1029F20003135B08803A83120313DB005A08803A00
:102A02005B02031D082D5908831603135A0203188B
:102A12000B2D0C2D1B2C01300A168A152E200A169E
:102A22008A11831203135408C9005308C8005608B8
:102A3200CB005508CA005808CD005708CC005A08E8
:102A4200CF005908CE000A168A112D250A168A11BE
:102A52002C2D1B2C1B2C0800013083160313B100F4
:102A62000030B2000A168A1509200A168A112C3083
:102A720083120313D0005008D1004430D000500814
:102A8200D20001300A168A152E200A168A11033046
:102A92000A168A152E200A168A1183120313510868
:102AA200F1000030031D8030F2000A168A156624F8
:102AB2000A168A11C830F0000030F1000A168A1591
:102AC20063230A168A1101300A168A152E200A1665
:102AD2008A116B2D03300A168A152E200A168A11C6
:102AE2000A168A15BF220A168A110A128A11512061
:102AF2000A168A11770883120313C9007608C800E0
:102B020048034904031D862D872D8E2D48080A1679
:102B12008A1169260A168A118E2D06308312031332
:102B220048064904031D962D972DA12D4908B6008C
:102B32004808B5000A168A1131200A168A11A12DF9
:102B420007308312031348064904031DA92DAA2D39
:102B5200B42D4908F9004808F8000A168A158D278D
:102B62000A168A11B42D0930831203134806490448
:102B7200031DBC2DBD2DC72D4908A8004808A7007C
:102B82000A128A1511250A168A11C72D08308312D6
:102B9200031348064904031DCF2DD02DDA2D490811
:102BA200F9004808F8000A168A15F2220A168A1154
:102BB200DA2D0D308312031348064904031DE22D5A
:102BC200E32DEC2D4908A8004808A7000A128A1133
:102BD20018220A168A11EA300A128A15E1200A1608
:102BE2008A11831603136A08D03E83120313CA00A4
:102BF200FF3003180030CB00831603136B08D03E5E
:102C020083120313CC00FF3003180030CD004B08B1
:102C1200F1004A08F0000A30F2000030F3000A1610
:102C22008A1109200A168A11831203134C087007AD
:102C3200CE004D0803184D0A7107CF004F08803AA5
:102C4200D000831603135B08803A831203135002E9
:102C5200031D312E831603135A08831203134E02E7
:102C62000318342E352E6B2D01300A168A152E20AC
:102C72000A168A1103300A168A152E200A168A119C
:102C8200831203135208F1000030031D8030F2005A
:102C92000A168A1566240A168A11C830F000003016
:102CA200F1000A168A1563230A168A1101300A16E0
:102CB2008A152E200A168A11013083160313B300D7
:102CC2000030B400B101B201682E6B2D6B2D0800EB
:102CD20083120313B00001300A168A152E200A1639
:102CE2008A1183120313B301B40183160317550823
:102CF20083120313A90083160317540883120313C4
:102D0200A80083160317530883120313A700831620
:102D12000317520883120313A6006230A000200892
:102D2200AD003830A0002008AE00972E03300A16FE
:102D32008A152E200A168A11831203132D08F10018
:102D42000030031D8030F2000A168A1566240A1626
:102D52008A110A128A1151200A168A1176088312E0
:102D62000313A0002008B0003003031DB92EBA2EB1
:102D72006B2F01300A168A152E200A168A1103308B
:102D82000A168A152E200A168A11831203132E0898
:102D9200F1000030031D8030F2000A168A15662405
:102DA2000A168A11C830F0000030F1000A168A159E
:102DB20063230A168A1101300A168A152E200A1672
:102DC2008A11FF2F6B2F8312031333083404031D60
:102DD200EB2EEC2EF12E0130B3000030B400802F28
:102DE200B301B401802F802F33033404031DFA2E64
:102DF200FB2E102F831603135C085D04031D022FA4
:102E0200032F102F0930DC000030DD005A08FF3E8E
:102E1200DA005B080318013EFF3EDB00802F8312BD
:102E22003308A0002007DA3E840083130008A100C3
:102E3200840A0008A2002108FF3EA300220803180A
:102E4200013EFF3EA4003308A5002507DA3E8400B8
:102E520023088000840A24088000802F802F3303F7
:102E62003404031D352F362F4A2F093083160313DE
:102E72005C065D04031D3E2F3F2F4A2FDC01DD015E
:102E82005A08013EDA005B080318013E003EDB00EF
:102E9200802F83123308A0002007DA3E84008313B8
:102EA2000008A100840A0008A2002108013EA30034
:102EB20022080318013E003EA4003308A50025079E
:102EC200DA3E840023088000840A24088000802FD0
:102ED200802F802F831203133008A000A101210844
:102EE200003A0319752F802F2008023A0319E42EA5
:102EF200013A0319F52E073A0319302F802F831652
:102F020003135B0883120313B200831603135A08D8
:102F120083120313B1000A30F0000030F1003208CE
:102F2200F3003108F2000A168A15B9260A168A1128
:102F32007008303E83120313A0002008AB000A3051
:102F4200F0000030F1003208F3003108F2000A16F6
:102F52008A151C270A168A11710883120313B200FC
:102F62007008B1000A30F0000030F1003208F300BE
:102F72003108F2000A168A15B9260A168A11700853
:102F8200303E83120313A0002008AA00AC0183166E
:102F920003135C08303E83120313A0002008AF0025
:102FA2002A30F1000030F2000A168A1566240A1649
:102FB2008A110A168A1550200A168A112E300A1210
:102FC2008A15D2200A168A110A168A1550200A1664
:102FD2008A11831203132F080A128A15D2200A16A5
:102FE2008A110A168A1550200A168A1130300A12DE
:0E2FF2008A15D2200A168A11972E972E0800F3
:10300A008316031386100800831203138610080020
:10301A00831203138614080083160313880185019B
:10302A0006309F000800C0300A168A152E200A169C
:10303A008A1508000730831603139F00850188014B
:10304A0008008312031387010F30831603138700C6
:10305A000800F00083120313851005118515700806
:10306A00880085110A168A1550200A168A15080042
:10307A007E088A007F0882000A168A153D200A16F1
:10308A008A158000840A04087D0603190034FF0AA1
:10309A000319FE0A4128FF3083160313880083129E
:1030AA0003138515851005155C2885118515881B60
:1030BA005F2860285A2861288316031388010800AC
:1030CA00F2007008F1007108F3006B280130F30276
:1030DA00031D702871286B2872280130F202031D23
:1030EA0077287828662879280800143400340034B0
:1030FA0000340734003400340034163400341E34EB
:10310A000034063400341E34003430343034303461
:10311A0030343034003483120313861686300A168C
:10312A008A1528230A168A15831203132108F80020
:10313A002008F7000A168A15E2230A168A150A16C3
:10314A008A1528230A168A15831203138612080081
:10315A008312031386168A300A168A1528230A163A
:10316A008A15831203132108F8002008F7000A16AB
:10317A008A15E2230A168A150A168A1528230A16B8
:10318A008A15831203138612080083120313861604
:10319A0088300A168A1528230A168A1583120313F9
:1031AA002108F8002008F7000A168A15E2230A16F1
:1031BA008A150A168A1528230A168A1583120313F2
:1031CA00861208008312031386168C300A168A1593
:1031DA0028230A168A15831203132108F8002008E7
:1031EA00F7000A168A15E2230A168A150A168A159C
:1031FA0028230A168A1583120313861208008312DB
:10320A000313861684300A168A1528230A168A1585
:10321A00831203132108F8002008F7000A168A15FA
:10322A00E2230A168A150A168A1528230A168A1507
:10323A008312031386120800831203138616823040
:10324A000A168A1528230A168A15831203132108D7
:10325A00F8002008F7000A168A15E2230A168A15CA
:10326A000A168A1528230A168A1583120313861248
:10327A00080083120313861680300A168A1528233B
:10328A000A168A15831203132108F8002008F7008A
:10329A000A168A15E2230A168A150A168A15282397
:1032AA000A168A158312031386120800831203135F
:1032BA0086120630831603139F0006100612861222
:1032CA0083120313061086168E300A168A152823CF
:1032DA000A168A1500300A168A1528230A168A152C
:1032EA00831203138612080083120313861685308D
:1032FA000A168A1528230A168A150A168A153425E3
:10330A000A168A15FA007A08FB008312031386123A
:10331A007B080A168A15C6250A168A1578088312A2
:10332A000313A6007708A5009A290800831203133D
:10333A00861683300A168A1528230A168A150A164B
:10334A008A1534250A168A15FA007A08FB008312B0
:10335A00031386127B080A168A15C6250A168A15C9
:10336A00780883120313A6007708A500BC29080071
:10337A0083120313861687300A168A1528230A161B
:10338A008A150A168A1534250A168A15FA007A0841
:10339A00FB008312031386127B080A168A15C625B8
:1033AA000A168A15780883120313A6007708A5005F
:1033BA00DE29080083120313861689300A168A1535
:1033CA0028230A168A150A168A1534250A168A1512
:1033DA00FA007A08FB008312031386127B080A1686
:1033EA008A15C6250A168A15780883120313A600B9
:1033FA007708A500002A08008312031386168D3069
:10340A000A168A1528230A168A150A168A153425D1
:10341A000A168A15FA007A08FB0083120313861229
:10342A007B080A168A15C6250A168A157808831291
:10343A000313A6007708A500222A080083120313A3
:10344A0086168B300A168A1528230A168A150A1632
:10345A008A1534250A168A15FA007A08FB0083129F
:10346A00031386127B080A168A15C6250A168A15B8
:10347A00780883120313A6007708A500442A0800D7
:10348A0083120313861681300A168A1528230A1610
:10349A008A150A168A1534250A168A15FA007A0830
:1034AA00FB008312031386127B080A168A15C625A7
:1034BA000A168A15780883120313A6007708A5004E
:1034CA00662A080083120313A70027080A128A151E
:1034DA00E1200A168A15831203132708F100003027
:1034EA00F2000A168A1566240A168A15DF300A12AD
:1034FA008A15D2200A168A150A168A1550200A1623
:10350A008A1543300A128A15D2200A168A1508002B
:10351A00F201F301B32AF401F501003075026430B7
:10352A0003197402031C9A2A9B2A9D2AAD2AAD2AE2
:10353A000130F4070318F50A0030F5070030750268
:10354A00643003197402031CAB2AAC2A9D2AAD2AE3
:10355A000130F2070318F30A0030F3077108730207
:10356A00031DB92A70087202031CBC2ABD2A902ABC
:10357A00BE2A0800B03083120313A8002808A90045
:10358A00BC30A8002808AA002908F1000030031D51
:10359A008030F2000A168A1566240A168A150A1657
:1035AA008A1124230A168A150A168A1518200A1659
:1035BA008A15831203132A08F1000030031D803094
:1035CA00F2000A168A1566240A168A15EA300A16BD
:1035DA008A1567220A168A15080001300A168A1502
:1035EA002E200A168A15831603132D032E04031D93
:1035FA00FF2A002B062B1130FA007A08FB00062B53
:10360A00062B03300A168A152E200A168A157B08FD
:10361A00F1000030031D8030F2000A168A15662474
:10362A000A168A15083078067904031D1D2B1E2BED
:10363A00062B01300A168A152E200A168A15272B00
:10364A00062B062B0800F400F201F3017308803AF6
:10365A00FF0080307F02031D342B08307202031CE6
:10366A00372B382B3A2B5F2B5F2B8312031306124F
:10367A000610741C412B422B442B0616442B74084B
:10368A00F0000310700CF1007108F4000614013008
:10369A00F2070318F30A0030F3077308803AFF00B1
:1036AA0080307F02031D5B2B08307202031C5E2BE5
:1036BA005F2B3A2B8312031306100800F301F4015F
:1036CA00912BF501F6017608803AFF0080307F02DF
:1036DA00031D712B64307502031C742B752B772B19
:1036EA008B2B8B2B0130F5070318F60A0030F607EF
:1036FA007608803AFF0080307F02031D862B6430F3
:10370A007502031C892B8A2B772B8B2B0130F3072D
:10371A000318F40A0030F4077408803AF2007108BA
:10372A00803A7202031D9B2B70087302031C9E2BA6
:10373A009F2B662BA02B0800700871040319A62B77
:10374A00A72BDC2BF501F50AB62B01300310F00D7F
:10375A00F10DFF3E031DAB2B0130F4007408F50791
:10376A00B62BF11FB92BBA2BAA2BBC2BBC2B710879
:10377A007302031DC22B70087202031CC52BC62BD1
:10378A00CD2B7008F2027108031CF303F302CD2B50
:10379A0001300310F10CF00CFF3E031DCE2B01305B
:1037AA00F502031DD92BDA2BBC2BDC2BDC2B73087F
:1037BA00F1007208F000E12B0800FA01FB01FC019C
:1037CA00FD01122C0130FA070318FB0A0030FB072F
:1037DA007C087D040319F22BF32B0C2C0A30F00021
:1037EA000030F1007D08F3007C08F2000A168A1501
:1037FA00B9260A168A1570087104031D052C062CB1
:10380A000C2C0630FA070318FB0A0030FB070130BC
:10381A00FC070318FD0A0030FD077D08803AF9000D
:10382A007808803A7902031D1C2C77087C02031C55
:10383A001F2C202CE72B212C7A08232C080000347B
:10384A000034003400340C340034013400340134C0
:10385A000034053400340A3400340034003430347F
:10386A00313432343334343435343634373438340A
:10387A003934303430342F34303430342F34303417
:10388A0030340034303430343A34303430342E3436
:10389A0030343034003417340034003400343034D7
:1038AA0030342F34303430342F3430343034003420
:1038BA00303430343A34303430342E3430343034D6
:1038CA000034F601F7018C2C76087107F4007208AF
:1038DA00F3000318F30AF61F732CF3037308F500B9
:1038EA00750883120313FF00740884000A128A15EC
:1038FA0000200A168A150A128A15D2200A168A1573
:10390A000130F6070318F70A0030F7078C2C7608FF
:10391A007107F4007208F3000318F30AF61F962CD5
:10392A00F3037308F500750883120313FF00740884
:10393A0084000A128A1500200A168A15003A031D05
:10394A00A72CA82C692CA92C0800F7000830F40031
:10395A007408F8007808031DB32CB42CB62CED2C8F
:10396A00ED2C77080139F4007408F600831203136A
:10397A000510831603130510000000000000000064
:10398A0000007603031DCA2CCB2CCF2C83160313FD
:10399A000514CF2C0730F4007408F00002300A1620
:1039AA008A1565200A168A15831603130514000062
:1039BA0000007708F4000310740CF5007508F7008E
:1039CA000130F8027808031DEB2CEC2CB62CED2CF8
:1039DA000800F5010830F4007408F6007608031DA3
:1039EA00F72CF82CFA2C312D312D0310F50C8312FB
:1039FA0003130510831603130510000000000000CE
:103A0A0000000000000083160313051400000000E4
:103A1A000000000000000030831203130518013073
:103A2A0083160313B500350803191C2D1D2D1F2DF0
:103A3A00F5171F2D0730F4007408F00002300A163B
:103A4A008A1565200A168A150130F6027608031DC2
:103A5A002F2D302DFA2C312D7508332D0800F20147
:103A6A00831603130616F301F4017408803AFF0063
:103A7A0080307F02031D432D08307302031C462D3C
:103A8A00472D492D722D722D831203130614061E1B
:103A9A004F2D502D5E2D0130F000730A562D031064
:103AAA00F00DFF3E031D542D7008F1007108F20756
:103ABA005E2D06100130F3070318F40A0030F407EC
:103ACA007408803AFF0080307F02031D6E2D083093
:103ADA007302031C712D722D492D831203130610D4
:103AEA0083160313061272087A2D0800FB01FC01E3
:103AFA00760877040319822D832DC02DFD01FD0A56
:103B0A00922D01300310F60DF70DFF3E031D872D90
:103B1A000130FA007A08FD07922DF71F952D962D90
:103B2A00862D982D982D01300310FB0DFC0DFF3EBC
:103B3A00031D992D77087902031DA52D76087802B1
:103B4A00031CA82DA92DB12D7608F8027708031CAD
:103B5A00F903F9027B14B12D01300310F70CF60CAE
:103B6A00FF3E031DB22D0130FD02031DBD2DBE2DEA
:103B7A00982DC02DC02D7C08F7007B08F600C52DB6
:103B8A00080083120313A000A301A401A101A2014A
:103B9A00FF2D013083120313A3070318A40A003070
:103BAA00A407230824040319DB2DDC2DF72D0A3082
:103BBA00F0000030F1002408F3002308F2000A168E
:103BCA008A15B9260A168A1570087104031DEE2D86
:103BDA00EF2DF72D063083120313A1070318A20A4B
:103BEA000030A207013083120313A1070318A20AA7
:103BFA000030A2072208803AF90080307902031DBA
:103C0A00082E20082102031C0B2E0C2ECE2D0D2E61
:103C1A00831203132408F8002308F700142E08005F
:103C2A0083120313A2008616BE300A168A152823A9
:103C3A000A168A1583120313A301A4012408803AE1
:103C4A00FF0080307F02031D2C2E08302302031C44
:103C5A002F2E302E322E602E602E8312031323084D
:103C6A00A00020072207A10021088400831300086E
:103C7A00F700840A0008F8000A168A15E2230A16D1
:103C8A008A150A168A1528230A168A1501308312FC
:103C9A000313A3070318A40A0030A4072408803AD0
:103CAA00FF0080307F02031D5C2E08302302031CB4
:103CBA005F2E602E322E8312031386120800F5013E
:103CCA00F6017608803AFF0080307F02031D6F2ECE
:103CDA0064307502031C722E732E752EB82EB82E00
:103CEA008312031305108316031305104630F400DC
:103CFA007408F00002300A168A1565200A168A1519
:103D0A008316031305140830F4007408F000023017
:103D1A000A168A1565200A168A15831203130518CE
:103D2A00972E982E9A2EB82EB82E3C30F40074088E
:103D3A00F00002300A168A1565200A168A15013023
:103D4A00F5070318F60A0030F6077608803AFF00EE
:103D5A0080307F02031DB32E64307502031CB62E19
:103D6A00B72E752EB82E0800F601F31FBD2EBE2EF3
:103D7A00C62EF209F309F20A0319F30AF601F60A42
:103D8A00C62EF11FC92ECA2ED02EF009F109F00A4B
:103D9A000319F10AD02E700871040319D52ED62EF4
:103DAA000B2FF501F50AE52E01300310F00DF10D88
:103DBA00FF3E031DDA2E0130F4007408F507E52EE4
:103DCA00F11FE82EE92ED92EEB2EEB2E7108730285
:103DDA00031DF12E70087202031CF42EF52EFC2E20
:103DEA007008F2027108031CF303F302FC2E01307F
:103DFA000310F10CF00CFF3E031DFD2E0130F502FD
:103E0A00031D082F092FEB2E0B2F0B2F76080319F2
:103E1A000F2F102F162FF209F309F20A0319F30ACA
:103E2A00162F7308F1007208F0001B2F0800F60124
:103E3A00F11F202F212F292FF009F109F00A031968
:103E4A00F10AF601F60A292FF31F2C2F2D2F372FEF
:103E5A00F209F309F20A0319F30A0130F4007408AB
:103E6A00F606372FF701F8017008710403193E2F7F
:103E7A003F2F7C2FF501F50A4E2F01300310F00D6C
:103E8A00F10DFF3E031D432F0130F4007408F507BE
:103E9A004E2FF11F512F522F422F542F542F0130E2
:103EAA000310F70DF80DFF3E031D552F710873021D
:103EBA00031D612F70087202031C642F652F6D2F7A
:103ECA007008F2027108031CF303F30277146D2FD2
:103EDA0001300310F10CF00CFF3E031D6E2F013070
:103EEA00F502031D792F7A2F542F7C2F7C2F760809
:103EFA000319802F812F872FF709F809F70A031969
:103F0A00F80A872F7808F1007708F0008C2F08004C
:103F1A005930FA007A08FB0001300A168A152E2059
:103F2A000A168A154C30FA007A08FC003430FA0076
:103F3A007A08FD00A02F0A128A1151200A168A1542
:103F4A007708F9007608F800073078067904031D27
:103F5A00AF2FB02FB72F01300A168A152E200A1656
:103F6A008A15FF2F03300A168A152E200A168A157B
:103F7A007B08F1000030031D8030F2000A168A1512
:103F8A0066240A168A158316031333033404031DA1
:103F9A00CF2FD02FE22F14300A168A152E200A1698
:103FAA008A157C08F1000030031D8030F2000A16E1
:103FBA008A1566240A168A15A02F83160313330856
:103FCA003404031DE92FEA2FA02F14300A168A158C
:103FDA002E200A168A157D08F1000030031D803054
:103FEA00F2000A168A1566240A168A15A02FA02F2F
:063FFA00A02FA02F08001B
:02400E00323F3F
:00000001FF
