:020000040000FA
:100000000A128A11FB2FFF1B0D2883137F188317F9
:100010000008840A0319FF0A080000308A00040857
:10002000840A8207003444346134743465343A34C9
:040030002034003444
:100C0000831603138801850106309F0008008312B4
:100C1000031387010F308316031387000800F000C9
:100C2000831203138510051185157008880085113E
:100C30000A128A1140260A128A110800F000831253
:100C400003138514051185157008880085110A1293
:100C50008A1140260A128A1108007008840083173E
:100C6000711C83138001700884008317711C831327
:100C70000008F2007C0884007208831380000800DA
:100C8000FF30831603138800831203138515851024
:100C900005154C2E85118515881B4F2E502E4A2E7A
:100CA000512E83160313880108008316031386014F
:100CB00083120313061086168E300A128A119126AB
:100CC0000A128A1100300A128A1191260A128A1118
:100CD000831203138612080083120313A700203027
:100CE0000A128A11CC260A128A11831203132008D1
:100CF000F90004300310F90CFF3E031D7A2E790829
:100D00000739303EFA00270884007A0883138000F0
:100D100020080F39303EF900270A84007908800046
:100D20000800F400F201F3017308803AFF008030FC
:100D30007F02031D9D2E08307202031CA02EA12EDF
:100D4000A32EC82EC82E8312031306120610741C7D
:100D5000AA2EAB2EAD2E0616AD2E7408F000031091
:100D6000700CF1007108F40006140130F20703184A
:100D7000F30A0030F3077308803AFF0080307F02E7
:100D8000031DC42E08307202031CC72EC82EA32ECA
:100D90008312031306100800F6008312031386164D
:100DA000BF300A128A1191260A128A11F701F8013E
:100DB0007808803AFF0080307F02031DE12E073063
:100DC0007702031CE42EE52EE72E062F062F770868
:100DD0007607F50075088400831300080A128A114B
:100DE0000A270A128A110130F7070318F80A00309F
:100DF000F8077808803AFF0080307F02031D022F39
:100E000007307702031C052F062FE72E83120313EA
:100E100086120800F400831603130616F201F3018C
:100E20007308803AFF0080307F02031D192F0830BD
:100E30007202031C1C2F1D2F1F2F442F442F8312BF
:100E4000031306107408F0000310700CF100710811
:100E5000F4000030061A80307404F0007008F400CA
:100E600006140130F2070318F30A0030F307730881
:100E7000803AFF0080307F02031D402F083072024D
:100E8000031C432F442F1F2F8316031306128312B4
:100E9000031306100800F601F701712F7608710799
:100EA000F4007208F3000318F30AF61F582FF30337
:100EB0007308F500750883120313FF00740884009B
:100EC0000A128A1103200A128A110A128A111E2696
:100ED0000A128A110130F6070318F70A0030F707E3
:100EE000712F76087107F4007208F3000318F30AF3
:100EF000F61F7B2FF3037308F500750883120313A5
:100F0000FF00740884000A128A1103200A128A1151
:100F1000003A031D8C2F8D2F4E2F8E2F0800063088
:100F2000F0000030F1000A128A112D260A128A11EF
:100F30008316031386010A128A1100260A128A11E7
:100F40000A128A1107260A128A110A128A115526D4
:100F50000A128A1183120313AB016E30FB007B0867
:100F6000A8000130FB007B08AC000C300A128A118B
:100F70000F260A128A1101300A128A110F260A124C
:100F80008A1103300A128A110F260A128A11383088
:100F90000A128A110F260A128A11CE2F03300A1262
:100FA0008A110F260A128A11831203132C08F100EA
:100FB0000030031D8030F2000A128A114B270A12FA
:100FC0008A1114300A128A110F260A128A11293046
:100FD0000A128A116C260A128A112930F100003097
:100FE000F2000A128A114B270A128A11CE2FCE2F35
:100FF0000A128A110028FC0183010A128A118F2F1C
:02400E00323F3F
:00000001FF
