:020000040000FA
:100000000A128A11FB2F00308A000408840A820732
:0E0010000034683465346C346C346F34003462
:100EEA00831603138801850106309F000800F0006D
:100EFA008312031385100511851570088800851162
:100F0A000A128A119A270A128A110800F00083121B
:100F1A0003138514051185157008880085110A12B6
:100F2A008A119A270A128A110800FF3083160313BE
:100F3A00880083120313851585100515A62F8511C0
:100F4A008515881BA92FAA2FA42FAB2F831603134D
:100F5A00880108000A128A1175270A128A110130BB
:100F6A00F4007408F5000F300A128A117C270A125D
:100F7A008A1101300A128A117C270A128A11033057
:100F8A000A128A117C270A128A1175080A128A1112
:100F9A00D4270A128A11D02F0A128A110028F300C4
:100FAA00F101F201EC2F7108730784000A128A1109
:100FBA0003200A128A110A128A118B270A128A112D
:100FCA000130F1070318F20A0030F207EC2F71081A
:100FDA00730784000A128A1103200A128A11003A3E
:100FEA00031DF82FF92FD82FFA2F0800F6018301D5
:060FFA000A128A11AF2F5C
:02400E00323F3F
:00000001FF
