:020000040000FA
:060000000A128A11B92F5B
:1000080064008001840A04060319003404060528E4
:10001800013083120313C4004408C5008316031378
:10002800EE01EF0101300A168A15EF250A128A112E
:100038001D2803300A168A15EF250A128A11831221
:1000480003134508F1000030031D8030F2000A1642
:100058008A1161230A128A110A168A15D6250A12EC
:100068008A11D5300A128A1570260A128A11831647
:1000780003135508D03E83120313BE00FF30031844
:100088000030BF00831603135608D03E83120313B3
:10009800C000FF3003180030C1003F08F1003E08DF
:1000A800F0000A30F2000030F3000A168A11E92045
:1000B8000A128A118312031340087007C20041080C
:1000C8000318410A7107C3000A128A11DF200A12B5
:1000D8008A11770883120313BD007608BC003C031D
:1000E8003D04031D7828792880283C080A128A15BF
:1000F80074230A128A1180280730831203133C06DE
:100108003D04031D8828892893283D08F9003C08E8
:10011800F8000A168A1131260A128A119328053026
:10012800831203133C063D04031D9B289C28AE281C
:10013800013083160313EE000030EF000A168A150B
:10014800D2250A128A1101300A168A15EF250A12D9
:100158008A11DE28831203136D08803AC40043080D
:10016800803A4402031DBA2842086C020318BD28CD
:10017800BE281D2801300A168A15EF250A128A1191
:10018800831203133D08B2003C08B1003F08B400D5
:100198003E08B3004108B6004008B5004308B8005F
:1001A8004208B7000A128A158A220A128A11DE2822
:1001B8001D281D280800831203130716871207132A
:1001C8008713871DE828E92800293230F00000301D
:1001D800F1000A168A1111210A128A11F928013030
:1001E800F6000030F700A52AA52A83120313871901
:1001F800FE28FF28F3280029071D032904291B29A5
:100208003230F0000030F1000A168A1111210A126A
:100218008A1114290230F6000030F700A52AA52A11
:1002280083120313071919291A290E291B29871C58
:100238001E291F2936293230F0000030F1000A1635
:100248008A1111210A128A112F290330F600003071
:10025800F700A52AA52A83120313871834293529FC
:1002680029293629071C39293A2951293230F00021
:100278000030F1000A168A1111210A128A114A293E
:100288000430F6000030F700A52AA52A83120313CC
:1002980007184F295029442951290712871607138F
:1002A8008713871D5829592970293230F0000030EA
:1002B800F1000A168A1111210A128A1169290530DA
:1002C800F6000030F700A52AA52A83120313871920
:1002D8006E296F2963297029071D732974298B29B1
:1002E8003230F0000030F1000A168A1111210A128A
:1002F8008A1184290630F6000030F700A52AA52ABD
:1003080083120313071989298A297E298B29871CB7
:100318008E298F29A6293230F0000030F1000A1604
:100328008A1111210A128A119F290730F60000301C
:10033800F700A52AA52A831203138718A429A5293B
:100348009929A629071CA929AA29C1293230F00010
:100358000030F1000A168A1111210A128A11BA29ED
:100368000830F6000030F700A52AA52A83120313E7
:100378000718BF29C029B429C129071287120717EE
:100388008713871DC829C929E0293230F0000030B9
:10039800F1000A168A1111210A128A11D929093085
:1003A800F6000030F700A52AA52A8312031387193F
:1003B800DE29DF29D329E029071DE329E429FB29C0
:1003C8003230F0000030F1000A168A1111210A12A9
:1003D8008A11F4290A30F6000030F700A52AA52A68
:1003E800831203130719F929FA29EE29FB29871C17
:1003F800FE29FF29162A3230F0000030F1000A16D3
:100408008A1111210A128A110F2A0B30F6000030C6
:10041800F700A52AA52A831203138718142A152A78
:10042800092A162A071C192A1A2A312A3230F000FA
:100438000030F1000A168A1111210A128A112A2A9B
:100448000C30F6000030F700A52AA52A8312031302
:1004580007182F2A302A242A312A0712871207134D
:100468008717871D382A392A502A3230F000003081
:10047800F1000A168A1111210A128A11492A0D302F
:10048800F6000030F700A52AA52A8312031387195E
:100498004E2A4F2A432A502A071D532A542A6B2AC8
:1004A8003230F0000030F1000A168A1111210A12C8
:1004B8008A11642A0E30F6000030F700A52AA52A12
:1004C800831203130719692A6A2A5E2A6B2A871C72
:1004D8006E2A6F2A862A3230F0000030F1000A16A0
:1004E8008A1111210A128A117F2A0F30F600003072
:1004F800F700A52AA52A831203138718842A852AB8
:10050800792A862A071C892A8A2AA22A3230F000E8
:100518000030F1000A168A1111210A128A119A2A4A
:100528001030F6000030F700A52AA52A831203131D
:1005380007189F2AA02A942AA22AA22AF601F701BC
:10054800A52A08000A168A15E1250A128A110A1234
:100558008A1503200A128A110A168A15E8250A1232
:100568008A110A168A15CE260A128A1190300A169E
:100578008A110E250A128A110A168A15CE250A1220
:100588008A1183120313D401D50183160313EE01D4
:10059800EF010130EA000030EB0001308312031351
:1005A800E0000030E1000130DE000030DF000C30F8
:1005B8000A168A15EF250A128A1101300A168A15B9
:1005C800EF250A128A1103300A168A15EF250A1236
:1005D8008A1138300A168A15EF250A128A110A1666
:1005E8008A15D2250A128A110A168A1596270A121E
:1005F8008A1183120313260883160313ED0083124E
:100608000313250883160313EC000A168A119D228A
:100618000A128A110A128A15A2210A128A11323084
:10062800F0000030F1000A168A115F220A128A11BE
:100638001D2B0A168A1596270A128A11831203138C
:10064800260883160313ED00831203132508831667
:100658000313EC0003300A168A15EF250A128A11D3
:10066800831603135508D03E83120313CE00FF30C0
:1006780003180030CF00831603135608D03E8312A8
:100688000313D000FF3003180030D1004F08F100E9
:100698004E08F0000A30F2000030F3000A168A1102
:1006A800E9200A128A118312031350087007D20036
:1006B80051080318510A7107D3005308831603130E
:1006C800DC0083120313520883160313DB00570858
:1006D80083120313C800C9014808CA004908CB009F
:1006E80083160313580883120313C800C901480866
:1006F800CC004908CD004B0883160313DE00831293
:1007080003134A0883160313DD00831203134D08ED
:1007180083160313E000831203134C088316031394
:10072800DF000A128A11DF200A128A117708831261
:100738000313D5007608D4000A168A1143210A1239
:100748008A11831603135508D03E83120313CE0073
:10075800FF3003180030CF00831603135608D03E2D
:1007680083120313D000FF3003180030D1004F0864
:10077800F1004E08F0000A30F2000030F3000A16CB
:100788008A11E9200A128A1183120313500870078C
:10079800D20051080318510A7107D30083160313B6
:1007A800580883120313C800C9014808CA00490839
:1007B800CB0083160313590883120313C800C90119
:1007C8004808CC004908CD0054035504031DED2BFF
:1007D800EE2BF52B54080A128A1574230A128A1173
:1007E800F52B06308312031354065504031DFD2B05
:1007F800FE2B082C5508B2005408B1000A168A11BD
:10080800A4260A128A11082C0730831203135406EF
:100818005504031D102C112C1B2C5508F9005408E5
:10082800F8000A168A1131260A128A111B2C09307F
:100838008312031354065504031D232C242C2E2C39
:100848005508A8005408A7000A128A11D8240A12C9
:100858008A112E2C08308312031354065504031DE5
:10086800362C372C412C5508F8005408F7000A1686
:100878008A1176210A128A11412C0D308312031332
:1008880054065504031D492C4A2C542C5508A8001D
:100898005408A7000A128A15E1240A128A11542C56
:1008A800831203135308803AC8006D08803A48023F
:1008B800031D602C6C085202031C632C642C7E2CD4
:1008C80083120313E001E1015508B2005408B10096
:1008D8004F08B4004E08B3005108B6005008B500E0
:1008E8005308B8005208B7000A128A158A220A1259
:1008F8008A117E2C831203136D08803AC8005308AE
:10090800803A4802031D8A2C52086C02031C8D2C65
:100918008E2CCE2C831203135308803AC8008316FA
:1009280003135C08803A831203134802031DA22CA8
:10093800831603135B088312031352020318A52CB2
:10094800A62CCE2C8312031360036104031DAD2C67
:10095800AE2CCE2C831603136E086F04031DB52C22
:10096800B62CCE2C831203135508BD005408BC00C6
:100978004F08BF004E08BE005108C1005008C00013
:100988005308C3005208C2000A128A110C200A1226
:100998008A11CE2C0A128A15A2210A128A111D2B3D
:1009A8001D2B0A128A11002801300A168A15EF2514
:1009B8000A128A1183120313C601C701A230A900C3
:1009C8002908B8005D30A9002908B9000A168A1557
:1009D800B8270A128A11831203132608D90025089A
:1009E800D8000A168A150E270A128A1183120313D1
:1009F8002608DB002508DA000A168A15EC260A12F2
:100A08008A11831203132608DD002508DC005D081F
:100A1800C1005C08C0005B08C3005A08C20059083E
:100A2800C5005808C400182D2F308400AA3083123E
:100A38000313A9000408AA000930AB0029088400A0
:100A480083130008AC00A90A2A0884002C08800037
:100A5800AA0AAB0B222D03300A168A15EF250A12B3
:100A68008A11831203133808F1000030031D803007
:100A7800F2000A168A1161230A128A110A128A11CF
:100A8800DF200A128A11770883120313A800760858
:100A9800A700093027062804031D532D542DDE2EE8
:100AA8004108A1004008A0000A168A1577260A12F4
:100AB8008A11831203134308A1004208A0000A16F2
:100AC8008A1594260A128A11831203134508A10075
:100AD8004408A0000A168A15B1260A128A110130A4
:100AE8000A168A15EF250A128A1103300A168A1582
:100AF800EF250A128A11831203133908F100003016
:100B0800031D8030F2000A168A1161230A128A1125
:100B1800C830F0000030F1000A168A115F220A126C
:100B28008A1101300A168A15EF250A128A11B82F80
:100B3800DE2E02308312031346064704031DA52D3B
:100B4800A62DA92DC601C701F02E0130C60703182E
:100B5800C70A0030C707F02EF02E46084704031DC9
:100B6800B62DB72D1F2E5E035F04031DBC2DBD2DB2
:100B7800F72D4608A9002907403E84008313000882
:100B8800AA00840A0008AB002A082B04031DCD2DF7
:100B9800CE2DD92D4608A9002907403E84001730DC
:100BA8008000840A00308000F02E4608A90029073A
:100BB800403E84000008AA00840A0008AB002A0806
:100BC800FF3EAC002B080318013EFF3EAD0046086F
:100BD800AE002E07403E84002C088000840A2D08B1
:100BE8008000F02EF02E5E085F04031DFC2DFD2D05
:100BF800FF2DF02EF02E4608A9002907403E84005C
:100C080083130008AA00840A0008AB002A08FF3EE4
:100C1800AC002B080318013EFF3EAD004608AE00AD
:100C28002E07403E84002C088000840A2D0880008E
:100C3800F02EF02EF02E4608A9002907403E840029
:100C480083130008AA00840A0008AB002A082B04B2
:100C5800031D2F2E302E3B2E4608A9002907403EA3
:100C680084003B308000840A00308000F02E460863
:100C7800A9002907403E84000008AA00840A000849
:100C8800AB002A08FF3EAC002B080318013EFF3ECC
:100C9800AD004608AE002E07403E84002C088000B8
:100CA800840A2D088000F02EF02EF02E4608470406
:100CB800031D5F2E602EA32E5E035F04031D652EA9
:100CC800662EF02E4608A9002907403E84008313AB
:100CD8000008AA00840A0008AB0017302A062B0473
:100CE800031D772E782E812E4608A9002907403E3D
:100CF80084008001840A8001F02E4608A900290793
:100D0800403E84000008AA00840A0008AB002A08B4
:100D1800013EAC002B080318013E003EAD0046081A
:100D2800AE002E07403E84002C088000840A2D085F
:100D38008000F02EF02EF02EF02EF02EF02E460829
:100D4800A9002907403E840083130008AA00840AEA
:100D58000008AB003B302A062B04031DB42EB52E29
:100D6800BE2E4608A9002907403E84008001840A57
:100D78008001F02E4608A9002907403E840000089B
:100D8800AA00840A0008AB002A08013EAC002B0820
:100D98000318013E003EAD004608AE002E07403E57
:100DA80084002C088000840A2D088000F02EF02E84
:100DB800F02EF02E831203132808003A0319E52EAB
:100DC800F02E27080A3A03199D2D013A0319B12D6F
:100DD800073A03195A2EF02E4108BB004008BA0002
:100DE8004308BD004208BC004508BF004408BE00D7
:100DF8000A30F0000030F1003B08F3003A08F20036
:100E08000A168A115D250A128A117008303E83126B
:100E18000313A9002908B0000A30F0000030F100DF
:100E28003B08F3003A08F2000A168A11C0250A1294
:100E38008A11710883120313BB007008BA000A30C4
:100E4800F0000030F1003B08F3003A08F2000A16FF
:100E58008A115D250A128A117008303E8312031325
:100E6800A9002908AF000A30F0000030F1003D0861
:100E7800F3003C08F2000A168A115D250A128A114D
:100E88007008303E83120313A9002908B3000A3002
:100E9800F0000030F1003D08F3003C08F2000A16AB
:100EA8008A11C0250A128A11710883120313BD0022
:100EB8007008BC000A30F0000030F1003D08F30073
:100EC8003C08F2000A168A115D250A128A11700878
:100ED800303E83120313A9002908B2000A30F0003B
:100EE8000030F1003F08F3003E08F2000A168A11AC
:100EF8005D250A128A117008303E83120313A90077
:100F08002908B6000A30F0000030F1003F08F3006D
:100F18003E08F2000A168A11C0250A128A117108C1
:100F280083120313BF007008BE000A30F0000030BF
:100F3800F1003F08F3003E08F2000A168A115D2509
:100F48000A128A117008303E83120313A900290877
:100F5800B5002F30F1000030F2000A168A11612323
:100F68000A128A11182D182D08008317A030FD00C9
:100F78001E30FE000D30FF00903084000A168A15DE
:100F880021260A128A118313DB30FD001130FE007E
:100F9800E730FF00A03084000A168A1521260A12BD
:100FA8008A117030FD001030FE00E530FF006C3013
:100FB80084000A168A1521260A128A118317A0307E
:100FC8008400AE300A128A1104200A128A1183138F
:100FD800DB308400F0300A128A1104200A128A11C8
:100FE800563084006C300A128A1104200A128A11C1
:080FF80083010A128A11A62AE6
:101006008312031387010F3083160313870008002A
:101016000A168A1596270A128A15831203132608BA
:1010260083160313ED008312031325088316031397
:10103600EC008E30FC007C0883120313A700783086
:10104600FC007C08A8004130FC007C08A9006F3039
:10105600FC007C08AA008730FC007C08AB006630E8
:10106600FC007C08AC009530FC007C08AD009D2897
:1010760083122708F1000030031D8030F2000A16A3
:101086008A1161230A128A15BB28831203132808C2
:10109600F1000030031D8030F2000A168A11612328
:1010A6000A128A15BB28831203132908F10000309F
:1010B600031D8030F2000A168A1161230A128A156E
:1010C600BB28831203132A08F1000030031D803069
:1010D600F2000A168A1161230A128A15BB288312A6
:1010E60003132B08F1000030031D8030F2000A16AE
:1010F6008A1161230A128A15BB28831203132C084E
:10110600F1000030031D8030F2000A168A116123B7
:101116000A128A15BB28831203132D08F10000302A
:10112600031D8030F2000A168A1161230A128A15FD
:10113600BB28BB28831603136D08003A0319A4289D
:10114600BB286C08013A03193B28033A03194828BF
:10115600013A03195628073A03196428013A031974
:101166007228033A03198028013A03198E28BB28EE
:1011760008000A168A15B8270A128A15831203135D
:101186002608D9002508D8000A168A150E270A123D
:101196008A15831203132608DB002508DA000A16CF
:1011A6008A15EC260A128A15831203132608DD0017
:1011B6002508DC000A30F0000030F1005D08F3007D
:1011C6005C08F2000A168A115D250A128A15700853
:1011D600303EFC007C0883160313CD000A30F00075
:1011E6000030F100831203135D08F3005C08F2007F
:1011F6000A168A11C0250A128A157108831203136A
:10120600DD007008DC000A30F0000030F1005D08F7
:10121600F3005C08F2000A168A115D250A128A1587
:101226007008303EFC007C0883160313CC000A309D
:10123600F0000030F100831203135B08F3005A0834
:10124600F2000A168A115D250A128A157008303EC8
:10125600FC007C0883160313D0000A30F00000302F
:10126600F100831203135B08F3005A08F2000A1612
:101276008A11C0250A128A15710883120313DB002E
:101286007008DA000A30F0000030F1005B08F30065
:101296005A08F2000A168A115D250A128A15700884
:1012A600303EFC007C0883160313CF000A30F000A2
:1012B6000030F100831203135908F3005808F200B6
:1012C6000A168A115D250A128A157008303EFC003E
:1012D6007C0883160313D3000A30F0000030F100B7
:1012E600831203135908F3005808F2000A168A11EC
:1012F600C0250A128A15710883120313D9007008D3
:10130600D8000A30F0000030F1005908F300580800
:10131600F2000A168A115D250A128A157008303EF7
:10132600FC007C0883160313D200CC30F100003099
:10133600F2000A168A1161230A128A15080083161A
:1013460003136A036B04031DA929AA29312A0A1665
:101356008A150E270A128A15831203132608DB0044
:101366002508DA000A168A15EC260A128A1583124F
:1013760003132608DD002508DC005D08803AFC0022
:10138600831603134908803A7C02031DCE294808B8
:10139600831203135C020318D129D229F32983127D
:1013A60003135B08803AFC00831603134B08803A4C
:1013B6007C02031DE2294A08831203135A0203180A
:1013C600E529E629EB2983120313E001E101892AC5
:1013D600013083120313E0000030E100892A892AD4
:1013E600831603134508803AFC00831203135D0835
:1013F600803A7C02031D032A5C0883160313440209
:101406000318062A072A282A831603134708803A50
:10141600FC00831203135B08803A7C02031D172A23
:101426005A0883160313460203181A2A1B2A202A6F
:1014360083120313E001E101892A013083120313A9
:10144600E0000030E100892A892A01308312031363
:10145600E0000030E100892A892A892A83160313CD
:101466006A086B04031D382A392A892A0A168A153E
:101476000E270A128A15831203132608DB00250895
:10148600DA000A168A15EC260A128A158312031345
:101496002608DD002508DC005D08803AFC0083167E
:1014A60003134108803A7C02031D5D2A400883121B
:1014B60003135C020318602A612A662A8312031347
:1014C600E001E101892A831603133D08803AFC00F6
:1014D600831203135D08803A7C02031D762A5C089A
:1014E600831603133C020318792A7A2A7F2A831269
:1014F6000313E001E101892A013083120313E0009E
:101506000030E100892A892A892A892A08000130BF
:1015160083160313EE000030EF000A168A15D22553
:101526000A128A151E3083120313B9003908BA004D
:101536003630B9003908BB0001300A168A15EF2586
:101546000A128A1503300A168A15EF250A128A1519
:10155600831203133A08F1000030031D8030F200B5
:101566000A168A1161230A128A15C830F000003063
:10157600F1000A168A115F220A128A1501300A162C
:101586008A15EF250A128A15C82A03300A168A1503
:10159600EF250A128A150A168A1143210A128A159C
:1015A6000A128A11DF200A128A157708831203139A
:1015B600B2007608B10031033204031DE32AE42A9F
:1015C600EB2A31080A128A1574230A128A15EB2AA5
:1015D60007308312031331063204031DF32AF42A5B
:1015E600FD2A3208F9003108F8000A168A11312658
:1015F6000A128A15D5300A128A1570260A128A1519
:10160600831603135508D03E83120313B300FF302D
:1016160003180030B400831603135608D03E831215
:101626000313B500FF3003180030B6003408F1008C
:101636003308F0000A30F2000030F3000A168A116F
:10164600E9200A128A158312031335087007B700BA
:1016560036080318360A7107B8003808803AB90008
:101666006D08803A3902031D3A2B6C0837020318BD
:101676003D2B3E2BC82A01300A168A15EF250A1281
:101686008A1503300A168A15EF250A128A1583125F
:1016960003133B08F1000030031D8030F2000A16E8
:1016A6008A1161230A128A15C830F0000030F10051
:1016B6000A168A115F220A128A1501300A168A153D
:1016C600EF250A128A15013083120313E000003059
:1016D600E10083160313EE01EF01732BC82AC82A13
:1016E600080083120313AC0001300A168A15EF2591
:1016F6000A128A1583120313AF01B0015430A000F9
:101706002008A9002A30A0002008AA008A2B03304E
:101716000A168A15EF250A128A1583120313290859
:10172600F1000030031D8030F2000A168A11612391
:101736000A128A150A128A11DF200A128A157608F9
:1017460083120313A0002008AC002C03031DAC2B4E
:10175600AD2B582C01300A168A15EF250A128A1568
:1017660003300A168A15EF250A128A158312031307
:101776002A08F1000030031D8030F2000A168A1193
:1017860061230A128A15C830F0000030F1000A16EB
:101796008A115F220A128A1501300A168A15EF2568
:1017A6000A128A15E02C582C831203132F083004D2
:1017B600031DDE2BDF2BE42B0130AF000030B00021
:1017C6006D2CAF01B0016D2C6D2C2F033004031D61
:1017D600ED2BEE2B012C6E086F04031DF32BF42B5F
:1017E600012C0930EE000030EF006C08FF3EEC00E3
:1017F6006D080318013EFF3EED006D2C2F08A0007A
:1018060020076C3E840083130008A100840A0008A8
:10181600A2002108FF3EA30022080318013EFF3E56
:10182600A4002F08A50025076C3E8400230880002D
:10183600840A240880006D2C6D2C2F033004031DB0
:10184600252C262C382C09306E066F04031D2C2CF3
:101856002D2C382CEE01EF016C08013EEC006D08D2
:101866000318013E003EED006D2C2F08A000200756
:101876006C3E840083130008A100840A0008A200BD
:101886002108013EA30022080318013E003EA400E1
:101896002F08A50025076C3E840023088000840AD3
:1018A600240880006D2C6D2C6D2C831203132C08DC
:1018B600A000A1012108003A0319622C6D2C200812
:1018C600023A0319D72B013A0319E82B073A0319F1
:1018D600202C6D2C6D08AE006C08AD000A30F000AF
:1018E6000030F1002E08F3002D08F2000A168A11C6
:1018F6005D250A128A157008303E83120313A00074
:101906002008A7000A30F0000030F1002E08F3008E
:101916002D08F2000A168A11C0250A128A157108C6
:1019260083120313AE007008AD000A30F0000030D9
:10193600F1002E08F3002D08F2000A168A115D2523
:101946000A128A157008303E83120313A00020087D
:10195600A600A8016E08303EA0002008AB00263085
:10196600F1000030F2000A168A1161230A128A1564
:101976000A168A1530260A128A152E300A168A1574
:10198600FE250A128A150A168A1530260A128A15A3
:10199600831203132B080A168A15FE250A128A15C6
:1019A6000A168A1530260A128A1530300A168A1542
:1019B600FE250A128A158A2B8A2B080001300A1680
:1019C6008A15EF250A128A1583120313B401B5018D
:1019D600B430A9002908AA00A830A9002908AB003C
:1019E6001130A9002908AC00C530A9002908AD00AE
:1019F600BD30A9002908AE00B930A9002908AF00FA
:101A0600D130A9002908B000C130A9002908B100C9
:101A1600CD30A9002908B200C930A9002908B300B1
:101A26000A168A1596270A128A15831203132608A0
:101A3600B7002508B6001F2D03300A168A15EF25B4
:101A46000A128A15831203132B08F1000030031DB6
:101A56008030F2000A168A1161230A128A150A12C8
:101A66008A11DF200A128A15770883120313A80049
:101A76007608A7000D3027062804031D432D442DA4
:101A8600C72D01300A168A15EF250A128A1503306A
:101A96000A168A15EF250A128A150A168A119D2238
:101AA6000A128A1583120313370883160313ED00EF
:101AB60083120313360883160313EC0083120313F1
:101AC6003708A1003608A0000A168A155A260A12F7
:101AD6008A15831203132C08F1000030031D803091
:101AE600F2000A168A1161230A128A15C830F0001C
:101AF6000030F1000A168A115F220A128A15013097
:101B06000A168A15EF250A128A156F2EC72DD92DAA
:101B16008312031334083504031D922D932DD92DFA
:101B260036033704031D982D992D9E2D0730B600D8
:101B36000030B700D92D3608FF3EB6003708031827
:101B4600013EFF3EB700D92DD92DD92D34083504D5
:101B5600031DAE2DAF2DD92D073036063704031DD4
:101B6600B52DB62DBB2D0130B6000030B700D92DEE
:101B76003608013EB60037080318013E003EB7009E
:101B8600D92DD92DD92DD92D831203132808003A22
:101B96000319CE2DD92D27080E3A0319D92D013A4E
:101BA60003198B2D1F3A0319A92DD92D0A168A154B
:101BB600DA250A128A15831203132A08F100003067
:101BC600031D8030F2000A168A1161230A128A1553
:101BD6004F2E831203132D08F1000030031D8030B1
:101BE600F2000A168A1161230A128A151F2D831222
:101BF60003132E08F1000030031D8030F2000A1690
:101C06008A1161230A128A151F2D831203132F08C6
:101C1600F1000030031D8030F2000A168A1161239C
:101C26000A128A151F2D831203133008F1000030A3
:101C3600031D8030F2000A168A1161230A128A15E2
:101C46001F2D831203133108F1000030031D80306D
:101C5600F2000A168A1161230A128A151F2D8312B1
:101C660003133208F1000030031D8030F2000A161B
:101C76008A1161230A128A151F2D83120313330852
:101C8600F1000030031D8030F2000A168A1161232C
:101C96000A128A151F2D1F2D831203133708003AC7
:101CA6000319562E1F2D3608013A0319EC2D033A57
:101CB6000319FA2D013A0319082E073A0319162EAD
:101CC600013A0319242E033A0319322E013A031955
:101CD600402E1F2D1F2D1F2D080083120313A40055
:101CE6008316031305140A168A1122220A128A156C
:101CF600CC300A168A11E9230A128A1544300A16CC
:101D06008A11E9230A128A15831203136608A03E74
:101D1600840083130008A000200883160313E10043
:101D2600831203136508A03E84000008A000200863
:101D360083160313E2002E3083120313A00020083B
:101D460083160313E300831203136408A03E840082
:101D56000008A000200883160313E400831203136F
:101D66006308A03E84000008A00020088316031321
:101D7600E50083120313A501A6012608803AFF0099
:101D860080307F02031DC92E05302502031CCC2E90
:101D9600CD2ECF2EF22EF22E831203132508E13E0E
:101DA600840083130008A00025082407A100210849
:101DB6008400200880000130A5070318A60A003019
:101DC600A6072608803AFF0080307F02031DED2E0D
:101DD60005302502031CF02EF12ECF2EF22E4630B2
:101DE60083120313A0002008F0000A300A168A1591
:101DF60045260A128A150A168A1122220A128A15FD
:101E0600CC300A168A11E9230A128A15BE300A1640
:101E16008A11E9230A128A150A168A11A5230A12BB
:101E26008A1583120313A0002008EA000A168A11F5
:101E3600A5230A128A1583120313A0002008E900BD
:101E4600831603130514831203136908A0000430D4
:101E56000310A00DFF3E031D2B2F3F302005A100D0
:101E66006A08A20004300310A20CFF3E031D362FA1
:101E760022082104A3002308E8006A08A000033012
:101E86000310A00DFF3E031D432F0310200DA100DC
:101E96002108E70065306802031C522F532F692F73
:101EA6006430F0000030F1006808A000A1012008AD
:101EB600F2002108F3000A168A11C0250A128A15B3
:101EC600700883120313A2002208E8000A30F0000B
:101ED6000030F1006808A000A1012008F2002108E6
:101EE600F3000A168A115D250A128A1570088312F4
:101EF6000313A2002208E5000A30F0000030F100CA
:101F06006808A000A1012008F2002108F3000A16C3
:101F16008A11C0250A128A15700883120313A200BB
:101F26002208E600D601D701E71F9A2F9B2FA42F80
:101F36005608883ED60057080318013E133ED700C0
:101F4600A42F671FA72FA82FB12F5608C43ED6006F
:101F560057080318013E093ED700B12FE71EB42FDC
:101F6600B52FBE2F5608E23ED60057080318013E8D
:101F7600043ED700BE2F671EC12FC22FCB2F560897
:101F8600713ED60057080318013E023ED700CB2FFC
:101F9600E830F6000330F7005708F9005608F80055
:101FA6000A168A1174240A128A15760883120313F4
:101FB600A0002008E4006430F6000030F70057085F
:101FC600F3005608F200E830F0000330F1000A167C
:101FD6008A11DE220A128A157108F9007008F800C3
:101FE6000A168A1174240A128A15760883120313B4
:101FF600A0002008E30000000800FF1B0A28831346
:102006007F1883170008840A0319FF0A0800103096
:102016008A000408840A820700344834653461342F
:10202600743469346E346734203446346134693428
:102036006C34753472346534003444346134743429
:1020460065342F3444346134793420345334653460
:1020560074340034483465346134743469346E340D
:10206600673420344F346634663400345434723462
:1020760069346734673465347234203453346534D4
:1020860074340034483465346134743469346E34DD
:10209600673420344F346E34003457346534643436
:1020A6006E346534733464346134793400344834BE
:1020B60065346134743469346E3467343A340034C8
:1020C60054347234693467346734653472343A345C
:1020D6000034543469346D346534203453346534F3
:1020E6007434003453346134743475347234643463
:1020F600613479340034543468347534723473344A
:10210600643461347934003454347534653473344A
:10211600643461347934003444346134743465345D
:102126003A342034003446347234693464346134C9
:10213600793400344D346F346E3464346134793418
:102146000034533475346E34643461347934003475
:102156004434613479343A342034003454346934A4
:102166006D3465343A34003444346134743465343F
:102176003A340034543465346D3470343A340034AF
:102186004434613479343A34003457346534643431
:10219600003454347534653400344634723469344A
:1021A60000344D346F346E340034533475346E3429
:1021B6000034533461347434003454346834753420
:0221C6000034E3
:1021CA001C34003400340034F401F501EC28701C8E
:1021DA00EF28F028F6287208F4070318F50A73089E
:1021EA00F50701300310F20DF30DFF3E031DF7282A
:1021FA0001300310F10CF00CFF3E031DFE2870089D
:10220A007104031D09290A29EC280B297508F10014
:10221A007408F00010290800F201F3013729F401CB
:10222A00F50100307502643003197402031C1E297B
:10223A001F292129312931290130F4070318F50A08
:10224A000030F50700307502643003197402031C6C
:10225A002F293029212931290130F2070318F30ADD
:10226A000030F30771087302031D3D2970087202DA
:10227A00031C40294129142942290800A23083124B
:10228A000313A8002808A900AE30A8002808AA004D
:10229A002908F1000030031D8030F2000A168A1165
:1022AA0061230A168A110A128A15BC200A168A1193
:1022BA000A168A15DA250A168A11831203132A08BE
:1022CA00F1000030031D8030F2000A168A116123E2
:1022DA000A168A11D5300A168A15DA270A168A11B9
:1022EA00080001300A168A15EF250A168A110A30E3
:1022FA00F0000030F100831203135F08F3005E0858
:10230A00F2000A168A115D250A168A117008F90068
:10231A007908FA0003300A168A15EF250A168A1177
:10232A007A080A168A15FE250A168A1108307706CF
:10233A007804031DA129A2298F2901300A168A15BA
:10234A00EF250A168A11AB298F298F290800F40074
:10235A00F201F3017308803AFF0080307F02031D07
:10236A00B82908307202031CBB29BC29BE29E329FB
:10237A00E3298312031306120610741CC529C62901
:10238A00C8290616C8297408F0000310700CF10059
:10239A007108F40006140130F2070318F30A00303A
:1023AA00F3077308803AFF0080307F02031DDF299C
:1023BA0008307202031CE229E329BE29831203139F
:1023CA00061008003034313432343334343435347E
:1023DA003634373438343934303430343A343034AB
:1023EA0030342E34303430340034303430342F34F6
:1023FA00303430342F34303430340034173400342D
:10240A000034003407340034003400341634003405
:10241A001E340034063400341E3400343034303470
:10242A003A34303430342E343034303400343034AA
:10243A0030343034303430340034F501F50A582A57
:10244A008312031305108316031305104630F40094
:10245A007408F00002300A168A1545260A168A11EF
:10246A008316031305140830F4007408F0000230D0
:10247A000A168A1545260A168A1183120313051CA1
:10248A00472A482A4B2AF501F50A4D2AF5014D2A11
:10249A003C30F4007408F00002300A168A1545260A
:1024AA000A168A11582A7508031D5C2A5D2A252AEC
:1024BA005E2A0800F301F4018D2AF501F601760877
:1024CA00803AFF0080307F02031D6D2A6430750256
:1024DA00031C702A712A732A872A872A0130F50772
:1024EA000318F60A0030F6077608803AFF008030B3
:1024FA007F02031D822A64307502031C852A862AFC
:10250A00732A872A0130F3070318F40A0030F40704
:10251A007408803AF2007108803A7202031D972A01
:10252A0070087302031C9A2A9B2A622A9C2A0800B2
:10253A00BF2A013083160313EA000030EB00DD2ABC
:10254A000130EA000030EB00DD2A0130EA000030F9
:10255A00EB00DD2A0130EA000030EB00DD2A013011
:10256A00EA000030EB00DD2AEA01EB01DD2AEA018C
:10257A00EB01DD2A831603136D08003A0319C62AF4
:10258A00DD2A6C08013A03199E2A033A0319A52A7F
:10259A00013A0319AA2A073A0319AF2A013A031979
:1025AA00B42A033A0319B92A013A0319BC2ADD2AC3
:1025BA000800700871040319E32AE42A192BF501AB
:1025CA00F50AF32A01300310F00DF10DFF3E031D49
:1025DA00E82A0130F4007408F507F32AF11FF62AF5
:1025EA00F72AE72AF92AF92A71087302031DFF2A32
:1025FA0070087202031C022B032B0A2B7008F202CA
:10260A007108031CF303F3020A2B01300310F10CC7
:10261A00F00CFF3E031D0B2B0130F502031D162B98
:10262A00172BF92A192B192B7308F1007208F000DD
:10263A001E2B0800FA01FB01FC01FD014F2B0130A2
:10264A00FA070318FB0A0030FB077C087D0403190C
:10265A002F2B302B492B0A30F0000030F1007D0877
:10266A00F3007C08F2000A168A115D250A168A11FF
:10267A0070087104031D422B432B492B0630FA07BD
:10268A000318FB0A0030FB070130FC070318FD0A98
:10269A000030FD077D08803AF9007808803A79020F
:1026AA00031D592B77087C02031C5C2B5D2B242B02
:1026BA005E2B7A08602B0800F601F701872B760853
:1026CA007107F4007208F3000318F30AF61F6E2B61
:1026DA00F3037308F500750883120313FF007408E7
:1026EA0084000A168A1100200A168A110A168A1507
:1026FA00FE250A168A110130F6070318F70A003078
:10270A00F707872B76087107F4007208F30003189D
:10271A00F30AF61F912BF3037308F5007508831269
:10272A000313FF00740884000A168A1100200A168F
:10273A008A11003A031DA22BA32B642BA42B080099
:10274A00F5010830F4007408F6007608031DAE2B74
:10275A00AF2BB12BE62BE62B0310F50C83120313D8
:10276A000510831603130510000000000000000086
:10277A000000000083160313051400000000000087
:10278A000000000000308312031305180130E20034
:10279A0062080319D12BD22BD42BF517D42B07306F
:1027AA00F4007408F00002300A168A1545260A1643
:1027BA008A110130F6027608031DE42BE52BB12BB2
:1027CA00E62B7508E82B0800F7000830F4007408B7
:1027DA00F8007808031DF22BF32BF52B2C2C2C2C4C
:1027EA0077080139F4007408F60083120313051000
:1027FA00831603130510000000000000000000000B
:10280A007603031D092C0A2C0E2C831603130514B8
:10281A000E2C0730F4007408F00002300A168A15EC
:10282A0045260A168A1183160313051400000000B0
:10283A007708F4000310740CF5007508F7000130EE
:10284A00F8027808031D2A2C2B2CF52B2C2C0800B7
:10285A00F201831603130616F301F4017408803A91
:10286A00FF0080307F02031D3C2C08307302031CDA
:10287A003F2C402C422C6B2C6B2C83120313061416
:10288A00061E482C492C572C0130F000730A4F2C95
:10289A000310F00DFF3E031D4D2C7008F100710866
:1028AA00F207572C06100130F3070318F40A003018
:1028BA00F4077408803AFF0080307F02031D672CFA
:1028CA0008307302031C6A2C6B2C422C83120313EC
:1028DA0006108316031306127208732C0800FB01F4
:1028EA00FC017608770403197B2C7C2CB92CFD019A
:1028FA00FD0A8B2C01300310F60DF70DFF3E031D68
:10290A00802C0130FA007A08FD078B2CF71F8E2CD9
:10291A008F2C7F2C912C912C01300310FB0DFC0D78
:10292A00FF3E031D922C77087902031D9E2C760820
:10293A007802031CA12CA22CAA2C7608F80277088C
:10294A00031CF903F9027B14AA2C01300310F70CBB
:10295A00F60CFF3E031DAB2C0130FD02031DB62C05
:10296A00B72C912CB92CB92C7C08F7007B08F600FF
:10297A00BE2C080083120313A000A301A401A10125
:10298A00A201F82C013083120313A3070318A40A27
:10299A000030A407230824040319D42CD52CF02CC6
:1029AA000A30F0000030F1002408F3002308F20096
:1029BA000A168A115D250A168A1170087104031D08
:1029CA00E72CE82CF02C063083120313A107031816
:1029DA00A20A0030A207013083120313A1070318C9
:1029EA00A20A0030A2072208803AF9008030790250
:1029FA00031D012D20082102031C042D052DC72CBF
:102A0A00062D831203132408F8002308F7000D2D5E
:102A1A00080083120313A2008616BE300A168A1112
:102A2A00AC210A168A1183120313A301A4012408F4
:102A3A00803AFF0080307F02031D252D08302302D3
:102A4A00031C282D292D2B2D592D592D83120313A3
:102A5A002308A00020072207A10021088400831769
:102A6A000008F700840A0008F8000A168A111F23D2
:102A7A000A168A110A168A11AC210A168A1101301D
:102A8A0083120313A3070318A40A0030A407240817
:102A9A00803AFF0080307F02031D552D0830230243
:102AAA00031C582D592D2B2D83120313861208004F
:102ABA00F601F31F612D622D6A2DF209F309F20A5C
:102ACA000319F30AF601F60A6A2DF11F6D2D6E2D10
:102ADA00742DF009F109F00A0319F10A742D70082E
:102AEA0071040319792D7A2DAF2DF501F50A892D77
:102AFA0001300310F00DF10DFF3E031D7E2D013054
:102B0A00F4007408F507892DF11F8C2D8D2D7D2D6C
:102B1A008F2D8F2D71087302031D952D7008720277
:102B2A00031C982D992DA02D7008F2027108031C20
:102B3A00F303F302A02D01300310F10CF00CFF3E59
:102B4A00031DA12D0130F502031DAC2DAD2D8F2DD6
:102B5A00AF2DAF2D76080319B32DB42DBA2DF20976
:102B6A00F309F20A0319F30ABA2D7308F10072087D
:102B7A00F000BF2D0800F601F11FC42DC52DCD2D83
:102B8A00F009F109F00A0319F10AF601F60ACD2D46
:102B9A00F31FD02DD12DDB2DF209F309F20A031907
:102BAA00F30A0130F4007408F606DB2DF701F80188
:102BBA00700871040319E22DE32D202EF501F50AA0
:102BCA00F22D01300310F00DF10DFF3E031DE72D2C
:102BDA000130F4007408F507F22DF11FF52DF62DDA
:102BEA00E62DF82DF82D01300310F70DF80DFF3EF4
:102BFA00031DF92D71087302031D052E7008720258
:102C0A00031C082E092E112E7008F2027108031CEB
:102C1A00F303F3027714112E01300310F10CF00CB8
:102C2A00FF3E031D122E0130F502031D1D2E1E2E1E
:102C3A00F82D202E202E76080319242E252E2B2E31
:102C4A00F709F809F70A0319F80A2B2E7808F10090
:102C5A007708F000302E08004B30FA007A08FB00A3
:102C6A0001300A168A15EF250A168A113E30FA0033
:102C7A007A08FC002630FA007A08FD00442E0A126F
:102C8A008A11DF200A168A117708F9007608F800F7
:102C9A00073078067904031D532E542E5B2E01301B
:102CAA000A168A15EF250A168A11A32E03300A1668
:102CBA008A15EF250A168A117B08F1000030031DD8
:102CCA008030F2000A168A1161230A168A118312C9
:102CDA00031360036104031D732E742E862E1430B1
:102CEA000A168A15EF250A168A117C08F1000030A7
:102CFA00031D8030F2000A168A1161230A168A110E
:102D0A00442E8312031360086104031D8D2E8E2E38
:102D1A00442E14300A168A15EF250A168A117D08E0
:102D2A00F1000030031D8030F2000A168A11612377
:102D3A000A168A11442E442E442E442E08000130CD
:102D4A000A168A15EF250A168A1180308312031390
:102D5A00B3003308B4009C30B3003308B5000A123C
:102D6A008A11DF200A168A11770883120313B20028
:102D7A007608B10003300A168A15EF250A168A1159
:102D8A00831203133408F1000030031D8030F2006F
:102D9A000A168A1161230A168A110A168A1123272A
:102DAA000A168A110A168A15DA250A168A11831250
:102DBA0003133508F1000030031D8030F2000A16B3
:102DCA008A1161230A168A110A128A150B200A1619
:102DDA008A118312031331033204031DF52EF62ED2
:102DEA00FD2E31080A128A1574230A168A11FD2E3D
:102DFA0006308312031331063204031D052F062FF2
:102E0A000D2F01300A168A15EF250A168A11222F6C
:102E1A0007308312031331063204031D152F162FB0
:102E2A00B42E3208F9003108F8000A168A11312640
:102E3A000A168A11B42EB42EB42E08000A168A1560
:102E4A0052270A168A11831203132608A800250896
:102E5A00A7000A168A1530270A168A118312031345
:102E6A002608AA002508A9000A168A1574270A1630
:102E7A008A11831203132608AC002508AB000A3016
:102E8A00F0000030F1002808F3002708F2000A16C3
:102E9A008A115D250A168A117008303EFC007C08EA
:102EAA0083160313B4000A30F0000030F1008312D5
:102EBA0003132808F3002708F2000A168A11C0250E
:102ECA000A168A11710883120313A8007008A70052
:102EDA000A30F0000030F1002808F3002708F20059
:102EEA000A168A115D250A168A117008303EFC00FE
:102EFA007C0883160313B3000A30F0000030F10097
:102F0A00831203132A08F3002908F2000A168A1109
:102F1A005D250A168A117008303EFC007C0883166B
:102F2A000313B6000A30F0000030F10083120313D5
:102F3A002A08F3002908F2000A168A11C0250A167F
:102F4A008A11710883120313AA007008A9000A30B3
:102F5A00F0000030F1002A08F3002908F2000A16EE
:102F6A008A115D250A168A117008303EFC007C0819
:102F7A0083160313B7000A30F0000030F100831201
:102F8A0003132C08F3002B08F2000A168A115D2598
:102F9A000A168A117008303EFC007C088316031357
:102FAA00BA000A30F0000030F100831203132C0833
:102FBA00F3002B08F2000A168A11C0250A168A1194
:102FCA00710883120313AC007008AB000A30F000DA
:102FDA000030F1002C08F3002B08F2000A168A11BF
:102FEA005D250A168A117008303EFC007C0883169B
:062FFA000313B9000800FA
:103B9C008316031386100800831203138610080083
:103BAC008312031386140800C0300A168A15EF25F9
:103BBC000A168A150800831603138801850106303E
:103BCC009F0008000730831603139F0085018801AE
:103BDC000800F00083120313851005118515700879
:103BEC00880085110A168A1530260A168A150800CF
:103BFC00F0008312031385140511851570088800D5
:103C0C0085110A168A1530260A168A1508003B34C7
:103C1C0000343B340034173400341F3400340C347B
:103C2C0000340534003463340034003400347E082E
:103C3C008A007F0882000A168A151D260A168A1524
:103C4C008000840A04087D0603190034FF0A031956
:103C5C00FE0A212EFF3083160313880083120313F0
:103C6C008515851005153C2E85118515881B3F2E55
:103C7C00402E3A2E412E8316031388010800F200C1
:103C8C007008F1007108F3004B2E0130F302031D94
:103C9C00502E512E4B2E522E0130F202031D572E58
:103CAC00582E462E592E08008312031386168A307E
:103CBC000A168A11AC210A168A15831203132108DD
:103CCC00F8002008F7000A168A111F230A168A1515
:103CDC000A168A11AC210A168A158312031386124E
:103CEC00080083120313861684300A168A11AC213D
:103CFC000A168A15831203132108F8002008F7000E
:103D0C000A168A111F230A168A150A168A11AC2163
:103D1C000A168A15831203138612080083120313E2
:103D2C00861682300A168A11AC210A168A1583125D
:103D3C0003132108F8002008F7000A168A111F2324
:103D4C000A168A150A168A11AC210A168A158312CC
:103D5C0003138612080083120313861680300A168A
:103D6C008A11AC210A168A15831203132108F80054
:103D7C002008F7000A168A111F230A168A150A163C
:103D8C008A11AC210A168A158312031386120800B5
:103D9C008312031386120630831603139F0006103A
:103DAC000612861283120313061086168E300A161C
:103DBC008A11AC210A168A1500300A168A11AC2118
:103DCC000A168A1583120313861208008312031332
:103DDC00861685300A168A11AC210A168A150A161F
:103DEC008A112D240A168A15FA007A08FB00831210
:103DFC00031386127B080A168A11BF240A168A1529
:103E0C00780883120313A6007708A5000D2F08006D
:103E1C0083120313861683300A168A11AC210A16F4
:103E2C008A150A168A112D240A168A15FA007A08A0
:103E3C00FB008312031386127B080A168A11BF2417
:103E4C000A168A15780883120313A6007708A500B2
:103E5C002F2F080083120313861687300A168A1137
:103E6C00AC210A168A150A168A112D240A168A15EF
:103E7C00FA007A08FB008312031386127B080A16D9
:103E8C008A11BF240A168A15780883120313A60018
:103E9C007708A500512F080083120313861689306A
:103EAC000A168A11AC210A168A150A168A112D24B3
:103EBC000A168A15FA007A08FB008312031386127D
:103ECC007B080A168A11BF240A168A1578088312F1
:103EDC000313A6007708A500732F080083120313A1
:103EEC0086168D300A168A11AC210A168A150A1606
:103EFC008A112D240A168A15FA007A08FB008312FF
:103F0C00031386127B080A168A11BF240A168A1517
:103F1C00780883120313A6007708A500952F0800D4
:103F2C008312031386168B300A168A11AC210A16DB
:103F3C008A150A168A112D240A168A15FA007A088F
:103F4C00FB008312031386127B080A168A11BF2406
:103F5C000A168A15780883120313A6007708A500A1
:103F6C00B72F080083120313861681300A168A11A4
:103F7C00AC210A168A150A168A112D240A168A15DE
:103F8C00FA007A08FB008312031386127B080A16C8
:103F9C008A11BF240A168A15780883120313A60007
:103FAC007708A500D92F080083120313A700270850
:103FBC000A128A1570260A168A158312031327080B
:103FCC00F1000030F2000A168A1161230A168A15D4
:103FDC00DF300A168A15FE250A168A150A168A1566
:103FEC0030260A168A1543300A168A15FE250A163B
:043FFC008A1508001A
:02400E00323F3F
:00000001FF
