:020000040000FA
:100000000A128A11FC2F00308A000408840A820731
:0E0010000034683465346C346C346F34003462
:100EF800831603138801850106309F000800F0005F
:100F08008312031385100511851570088800851153
:100F18000A128A11A1270A128A110800F000831206
:100F280003138514051185157008880085110A12A8
:100F38008A11A1270A128A110800FF3083160313A9
:100F4800880083120313851585100515AD2F8511AB
:100F58008515881BB02FB12FAB2FB22F8316031323
:100F6800880108000A128A117C270A128A110130A6
:100F7800F4007408F5000E300A128A1183270A1249
:100F88008A1101300A128A1183270A128A117508F8
:100F98000A128A11D5270A128A11D12F0A128A1128
:100FA8000028F300F101F201ED2F710873078400A6
:100FB8000A128A1103200A128A110A128A11922728
:100FC8000A128A110130F1070318F20A0030F207F9
:100FD800ED2F7108730784000A128A1103200A1280
:100FE8008A11003A031DF92FFA2FD92FFB2F080079
:080FF80083010A128A11B62FD1
:02400E00323F3F
:00000001FF
